{
  "contractName": "CampaignWallet",
  "abi": [
    {
      "inputs": [
        {
          "internalType": "address[]",
          "name": "payees",
          "type": "address[]"
        },
        {
          "internalType": "uint256[]",
          "name": "shares",
          "type": "uint256[]"
        },
        {
          "internalType": "string[]",
          "name": "names",
          "type": "string[]"
        },
        {
          "internalType": "string[]",
          "name": "reasons",
          "type": "string[]"
        }
      ],
      "stateMutability": "payable",
      "type": "constructor"
    },
    {
      "anonymous": false,
      "inputs": [
        {
          "indexed": false,
          "internalType": "address",
          "name": "account",
          "type": "address"
        },
        {
          "indexed": false,
          "internalType": "uint256",
          "name": "shares",
          "type": "uint256"
        }
      ],
      "name": "PayeeAdded",
      "type": "event"
    },
    {
      "anonymous": false,
      "inputs": [
        {
          "indexed": false,
          "internalType": "address",
          "name": "from",
          "type": "address"
        },
        {
          "indexed": false,
          "internalType": "uint256",
          "name": "amount",
          "type": "uint256"
        }
      ],
      "name": "PaymentReceived",
      "type": "event"
    },
    {
      "anonymous": false,
      "inputs": [
        {
          "indexed": false,
          "internalType": "address",
          "name": "to",
          "type": "address"
        },
        {
          "indexed": false,
          "internalType": "uint256",
          "name": "amount",
          "type": "uint256"
        }
      ],
      "name": "PaymentReleased",
      "type": "event"
    },
    {
      "inputs": [
        {
          "internalType": "uint256",
          "name": "index",
          "type": "uint256"
        }
      ],
      "name": "payee",
      "outputs": [
        {
          "internalType": "address",
          "name": "",
          "type": "address"
        }
      ],
      "stateMutability": "view",
      "type": "function"
    },
    {
      "inputs": [
        {
          "internalType": "address payable",
          "name": "account",
          "type": "address"
        }
      ],
      "name": "release",
      "outputs": [],
      "stateMutability": "nonpayable",
      "type": "function"
    },
    {
      "inputs": [
        {
          "internalType": "address",
          "name": "account",
          "type": "address"
        }
      ],
      "name": "released",
      "outputs": [
        {
          "internalType": "uint256",
          "name": "",
          "type": "uint256"
        }
      ],
      "stateMutability": "view",
      "type": "function"
    },
    {
      "inputs": [
        {
          "internalType": "address",
          "name": "account",
          "type": "address"
        }
      ],
      "name": "shares",
      "outputs": [
        {
          "internalType": "uint256",
          "name": "",
          "type": "uint256"
        }
      ],
      "stateMutability": "view",
      "type": "function"
    },
    {
      "inputs": [],
      "name": "totalReleased",
      "outputs": [
        {
          "internalType": "uint256",
          "name": "",
          "type": "uint256"
        }
      ],
      "stateMutability": "view",
      "type": "function"
    },
    {
      "inputs": [],
      "name": "totalShares",
      "outputs": [
        {
          "internalType": "uint256",
          "name": "",
          "type": "uint256"
        }
      ],
      "stateMutability": "view",
      "type": "function"
    },
    {
      "stateMutability": "payable",
      "type": "receive"
    },
    {
      "inputs": [],
      "name": "beneficiaries",
      "outputs": [
        {
          "components": [
            {
              "internalType": "address",
              "name": "id",
              "type": "address"
            },
            {
              "internalType": "string",
              "name": "name",
              "type": "string"
            },
            {
              "internalType": "string",
              "name": "reason",
              "type": "string"
            }
          ],
          "internalType": "struct CampaignWallet.Beneficiary[]",
          "name": "",
          "type": "tuple[]"
        }
      ],
      "stateMutability": "view",
      "type": "function"
    }
  ],
  "bytecode": "0x60806040526040516200207e3803806200207e8339818101604052810190620000299190620008b0565b8383805182511462000072576040517f08c379a0000000000000000000000000000000000000000000000000000000008152600401620000699062000bad565b60405180910390fd5b6000825111620000b9576040517f08c379a0000000000000000000000000000000000000000000000000000000008152600401620000b09062000bf1565b60405180910390fd5b60005b825181101562000179576200016383828151811062000104577f4e487b7100000000000000000000000000000000000000000000000000000000600052603260045260246000fd5b602002602001015183838151811062000146577f4e487b7100000000000000000000000000000000000000000000000000000000600052603260045260246000fd5b602002602001015162000350640100000000026401000000009004565b8080620001709062000e41565b915050620000bc565b50505060005b8451811015620003455760056040518060600160405280878481518110620001d0577f4e487b7100000000000000000000000000000000000000000000000000000000600052603260045260246000fd5b602002602001015173ffffffffffffffffffffffffffffffffffffffff1681526020018584815181106200022d577f4e487b7100000000000000000000000000000000000000000000000000000000600052603260045260246000fd5b6020026020010151815260200184848151811062000274577f4e487b7100000000000000000000000000000000000000000000000000000000600052603260045260246000fd5b6020026020010151815250908060018154018082558091505060019003906000526020600020906003020160009091909190915060008201518160000160006101000a81548173ffffffffffffffffffffffffffffffffffffffff021916908373ffffffffffffffffffffffffffffffffffffffff16021790555060208201518160010190805190602001906200030d9291906200058a565b5060408201518160020190805190602001906200032c9291906200058a565b50505080806200033c9062000e41565b9150506200017f565b505050505062000f50565b600073ffffffffffffffffffffffffffffffffffffffff168273ffffffffffffffffffffffffffffffffffffffff161415620003c3576040517f08c379a0000000000000000000000000000000000000000000000000000000008152600401620003ba9062000b8b565b60405180910390fd5b6000811162000409576040517f08c379a0000000000000000000000000000000000000000000000000000000008152600401620004009062000c13565b60405180910390fd5b6000600260008473ffffffffffffffffffffffffffffffffffffffff1673ffffffffffffffffffffffffffffffffffffffff16815260200190815260200160002054146200048e576040517f08c379a0000000000000000000000000000000000000000000000000000000008152600401620004859062000bcf565b60405180910390fd5b6004829080600181540180825580915050600190039060005260206000200160009091909190916101000a81548173ffffffffffffffffffffffffffffffffffffffff021916908373ffffffffffffffffffffffffffffffffffffffff16021790555080600260008473ffffffffffffffffffffffffffffffffffffffff1673ffffffffffffffffffffffffffffffffffffffff168152602001908152602001600020819055508060005462000545919062000d3a565b6000819055507f40c340f65e17194d14ddddb073d3c9f888e3cb52b5aae0c6c7706b4fbc905fac82826040516200057e92919062000b5e565b60405180910390a15050565b828054620005989062000e0b565b90600052602060002090601f016020900481019282620005bc576000855562000608565b82601f10620005d757805160ff191683800117855562000608565b8280016001018555821562000608579182015b8281111562000607578251825591602001919060010190620005ea565b5b5090506200061791906200061b565b5090565b5b80821115620006365760008160009055506001016200061c565b5090565b6000620006516200064b8462000c69565b62000c35565b905080838252602082019050828560208602820111156200067157600080fd5b60005b85811015620006a557816200068a8882620007ce565b84526020840193506020830192505060018101905062000674565b5050509392505050565b6000620006c6620006c08462000c98565b62000c35565b9050808382526020820190508260005b858110156200070a5781518501620006ef88826200086c565b845260208401935060208301925050600181019050620006d6565b5050509392505050565b60006200072b620007258462000cc7565b62000c35565b905080838252602082019050828560208602820111156200074b57600080fd5b60005b858110156200077f578162000764888262000899565b8452602084019350602083019250506001810190506200074e565b5050509392505050565b6000620007a06200079a8462000cf6565b62000c35565b905082815260208101848484011115620007b957600080fd5b620007c684828562000dd5565b509392505050565b600081519050620007df8162000f1c565b92915050565b600082601f830112620007f757600080fd5b8151620008098482602086016200063a565b91505092915050565b600082601f8301126200082457600080fd5b815162000836848260208601620006af565b91505092915050565b600082601f8301126200085157600080fd5b81516200086384826020860162000714565b91505092915050565b600082601f8301126200087e57600080fd5b81516200089084826020860162000789565b91505092915050565b600081519050620008aa8162000f36565b92915050565b60008060008060808587031215620008c757600080fd5b600085015167ffffffffffffffff811115620008e257600080fd5b620008f087828801620007e5565b945050602085015167ffffffffffffffff8111156200090e57600080fd5b6200091c878288016200083f565b935050604085015167ffffffffffffffff8111156200093a57600080fd5b620009488782880162000812565b925050606085015167ffffffffffffffff8111156200096657600080fd5b620009748782880162000812565b91505092959194509250565b6200098b8162000d97565b82525050565b6000620009a0602c8362000d29565b91507f5061796d656e7453706c69747465723a206163636f756e74206973207468652060008301527f7a65726f206164647265737300000000000000000000000000000000000000006020830152604082019050919050565b600062000a0860328362000d29565b91507f5061796d656e7453706c69747465723a2070617965657320616e64207368617260008301527f6573206c656e677468206d69736d6174636800000000000000000000000000006020830152604082019050919050565b600062000a70602b8362000d29565b91507f5061796d656e7453706c69747465723a206163636f756e7420616c726561647960008301527f20686173207368617265730000000000000000000000000000000000000000006020830152604082019050919050565b600062000ad8601a8362000d29565b91507f5061796d656e7453706c69747465723a206e6f207061796565730000000000006000830152602082019050919050565b600062000b1a601d8362000d29565b91507f5061796d656e7453706c69747465723a207368617265732061726520300000006000830152602082019050919050565b62000b588162000dcb565b82525050565b600060408201905062000b75600083018562000980565b62000b84602083018462000b4d565b9392505050565b6000602082019050818103600083015262000ba68162000991565b9050919050565b6000602082019050818103600083015262000bc881620009f9565b9050919050565b6000602082019050818103600083015262000bea8162000a61565b9050919050565b6000602082019050818103600083015262000c0c8162000ac9565b9050919050565b6000602082019050818103600083015262000c2e8162000b0b565b9050919050565b6000604051905081810181811067ffffffffffffffff8211171562000c5f5762000c5e62000eed565b5b8060405250919050565b600067ffffffffffffffff82111562000c875762000c8662000eed565b5b602082029050602081019050919050565b600067ffffffffffffffff82111562000cb65762000cb562000eed565b5b602082029050602081019050919050565b600067ffffffffffffffff82111562000ce55762000ce462000eed565b5b602082029050602081019050919050565b600067ffffffffffffffff82111562000d145762000d1362000eed565b5b601f19601f8301169050602081019050919050565b600082825260208201905092915050565b600062000d478262000dcb565b915062000d548362000dcb565b9250827fffffffffffffffffffffffffffffffffffffffffffffffffffffffffffffffff0382111562000d8c5762000d8b62000e8f565b5b828201905092915050565b600062000da48262000dab565b9050919050565b600073ffffffffffffffffffffffffffffffffffffffff82169050919050565b6000819050919050565b60005b8381101562000df557808201518184015260208101905062000dd8565b8381111562000e05576000848401525b50505050565b6000600282049050600182168062000e2457607f821691505b6020821081141562000e3b5762000e3a62000ebe565b5b50919050565b600062000e4e8262000dcb565b91507fffffffffffffffffffffffffffffffffffffffffffffffffffffffffffffffff82141562000e845762000e8362000e8f565b5b600182019050919050565b7f4e487b7100000000000000000000000000000000000000000000000000000000600052601160045260246000fd5b7f4e487b7100000000000000000000000000000000000000000000000000000000600052602260045260246000fd5b7f4e487b7100000000000000000000000000000000000000000000000000000000600052604160045260246000fd5b62000f278162000d97565b811462000f3357600080fd5b50565b62000f418162000dcb565b811462000f4d57600080fd5b50565b61111e8062000f606000396000f3fe608060405260043610610091576000357c0100000000000000000000000000000000000000000000000000000000900480638b83209b1161006b5780638b83209b1461015c5780639852595c14610199578063ce7c2ac2146101d6578063e33b7de314610213576100d8565b806319165587146100dd5780631d29bd5a146101065780633a98ef3914610131576100d8565b366100d8577f6ef95f06320e7a25a04a175ca677b7052bdd97131872c2192525a629f51be7706100bf61023e565b346040516100ce929190610cb0565b60405180910390a1005b600080fd5b3480156100e957600080fd5b5061010460048036038101906100ff9190610924565b610246565b005b34801561011257600080fd5b5061011b6104c5565b6040516101289190610cd9565b60405180910390f35b34801561013d57600080fd5b5061014661069e565b6040516101539190610d7b565b60405180910390f35b34801561016857600080fd5b50610183600480360381019061017e919061094d565b6106a7565b6040516101909190610c6c565b60405180910390f35b3480156101a557600080fd5b506101c060048036038101906101bb91906108fb565b610715565b6040516101cd9190610d7b565b60405180910390f35b3480156101e257600080fd5b506101fd60048036038101906101f891906108fb565b61075e565b60405161020a9190610d7b565b60405180910390f35b34801561021f57600080fd5b506102286107a7565b6040516102359190610d7b565b60405180910390f35b600033905090565b6000600260008373ffffffffffffffffffffffffffffffffffffffff1673ffffffffffffffffffffffffffffffffffffffff16815260200190815260200160002054116102c8576040517f08c379a00000000000000000000000000000000000000000000000000000000081526004016102bf90610cfb565b60405180910390fd5b60006001543073ffffffffffffffffffffffffffffffffffffffff16316102ef9190610e07565b90506000600360008473ffffffffffffffffffffffffffffffffffffffff1673ffffffffffffffffffffffffffffffffffffffff16815260200190815260200160002054600054600260008673ffffffffffffffffffffffffffffffffffffffff1673ffffffffffffffffffffffffffffffffffffffff16815260200190815260200160002054846103819190610e8e565b61038b9190610e5d565b6103959190610ee8565b905060008114156103db576040517f08c379a00000000000000000000000000000000000000000000000000000000081526004016103d290610d5b565b60405180910390fd5b80600360008573ffffffffffffffffffffffffffffffffffffffff1673ffffffffffffffffffffffffffffffffffffffff168152602001908152602001600020546104269190610e07565b600360008573ffffffffffffffffffffffffffffffffffffffff1673ffffffffffffffffffffffffffffffffffffffff16815260200190815260200160002081905550806001546104779190610e07565b60018190555061048783826107b1565b7fdf20fd1e76bc69d672e4814fafb2c449bba3a5369d8359adf9e05e6fde87b05683826040516104b8929190610c87565b60405180910390a1505050565b60606005805480602002602001604051908101604052809291908181526020016000905b8282101561069557838290600052602060002090600302016040518060600160405290816000820160009054906101000a900473ffffffffffffffffffffffffffffffffffffffff1673ffffffffffffffffffffffffffffffffffffffff1673ffffffffffffffffffffffffffffffffffffffff16815260200160018201805461057290610fd3565b80601f016020809104026020016040519081016040528092919081815260200182805461059e90610fd3565b80156105eb5780601f106105c0576101008083540402835291602001916105eb565b820191906000526020600020905b8154815290600101906020018083116105ce57829003601f168201915b5050505050815260200160028201805461060490610fd3565b80601f016020809104026020016040519081016040528092919081815260200182805461063090610fd3565b801561067d5780601f106106525761010080835404028352916020019161067d565b820191906000526020600020905b81548152906001019060200180831161066057829003601f168201915b505050505081525050815260200190600101906104e9565b50505050905090565b60008054905090565b6000600482815481106106e3577f4e487b7100000000000000000000000000000000000000000000000000000000600052603260045260246000fd5b9060005260206000200160009054906101000a900473ffffffffffffffffffffffffffffffffffffffff169050919050565b6000600360008373ffffffffffffffffffffffffffffffffffffffff1673ffffffffffffffffffffffffffffffffffffffff168152602001908152602001600020549050919050565b6000600260008373ffffffffffffffffffffffffffffffffffffffff1673ffffffffffffffffffffffffffffffffffffffff168152602001908152602001600020549050919050565b6000600154905090565b803073ffffffffffffffffffffffffffffffffffffffff1631101561080b576040517f08c379a000000000000000000000000000000000000000000000000000000000815260040161080290610d3b565b60405180910390fd5b60008273ffffffffffffffffffffffffffffffffffffffff168260405161083190610c57565b60006040518083038185875af1925050503d806000811461086e576040519150601f19603f3d011682016040523d82523d6000602084013e610873565b606091505b50509050806108b7576040517f08c379a00000000000000000000000000000000000000000000000000000000081526004016108ae90610d1b565b60405180910390fd5b505050565b6000813590506108cb816110a3565b92915050565b6000813590506108e0816110ba565b92915050565b6000813590506108f5816110d1565b92915050565b60006020828403121561090d57600080fd5b600061091b848285016108bc565b91505092915050565b60006020828403121561093657600080fd5b6000610944848285016108d1565b91505092915050565b60006020828403121561095f57600080fd5b600061096d848285016108e6565b91505092915050565b60006109828383610bf1565b905092915050565b61099381610f6a565b82525050565b6109a281610f1c565b82525050565b6109b181610f1c565b82525050565b60006109c282610da6565b6109cc8185610dc9565b9350836020820285016109de85610d96565b8060005b85811015610a1a57848403895281516109fb8582610976565b9450610a0683610dbc565b925060208a019950506001810190506109e2565b50829750879550505050505092915050565b6000610a3782610db1565b610a418185610de5565b9350610a51818560208601610fa0565b610a5a81611092565b840191505092915050565b6000610a72602683610df6565b91507f5061796d656e7453706c69747465723a206163636f756e7420686173206e6f2060008301527f73686172657300000000000000000000000000000000000000000000000000006020830152604082019050919050565b6000610ad8603a83610df6565b91507f416464726573733a20756e61626c6520746f2073656e642076616c75652c207260008301527f6563697069656e74206d617920686176652072657665727465640000000000006020830152604082019050919050565b6000610b3e601d83610df6565b91507f416464726573733a20696e73756666696369656e742062616c616e63650000006000830152602082019050919050565b6000610b7e602b83610df6565b91507f5061796d656e7453706c69747465723a206163636f756e74206973206e6f742060008301527f647565207061796d656e740000000000000000000000000000000000000000006020830152604082019050919050565b6000610be4600083610dda565b9150600082019050919050565b6000606083016000830151610c096000860182610999565b5060208301518482036020860152610c218282610a2c565b91505060408301518482036040860152610c3b8282610a2c565b9150508091505092915050565b610c5181610f60565b82525050565b6000610c6282610bd7565b9150819050919050565b6000602082019050610c8160008301846109a8565b92915050565b6000604082019050610c9c600083018561098a565b610ca96020830184610c48565b9392505050565b6000604082019050610cc560008301856109a8565b610cd26020830184610c48565b9392505050565b60006020820190508181036000830152610cf381846109b7565b905092915050565b60006020820190508181036000830152610d1481610a65565b9050919050565b60006020820190508181036000830152610d3481610acb565b9050919050565b60006020820190508181036000830152610d5481610b31565b9050919050565b60006020820190508181036000830152610d7481610b71565b9050919050565b6000602082019050610d906000830184610c48565b92915050565b6000819050602082019050919050565b600081519050919050565b600081519050919050565b6000602082019050919050565b600082825260208201905092915050565b600081905092915050565b600082825260208201905092915050565b600082825260208201905092915050565b6000610e1282610f60565b9150610e1d83610f60565b9250827fffffffffffffffffffffffffffffffffffffffffffffffffffffffffffffffff03821115610e5257610e51611005565b5b828201905092915050565b6000610e6882610f60565b9150610e7383610f60565b925082610e8357610e82611034565b5b828204905092915050565b6000610e9982610f60565b9150610ea483610f60565b9250817fffffffffffffffffffffffffffffffffffffffffffffffffffffffffffffffff0483118215151615610edd57610edc611005565b5b828202905092915050565b6000610ef382610f60565b9150610efe83610f60565b925082821015610f1157610f10611005565b5b828203905092915050565b6000610f2782610f40565b9050919050565b6000610f3982610f40565b9050919050565b600073ffffffffffffffffffffffffffffffffffffffff82169050919050565b6000819050919050565b6000610f7582610f7c565b9050919050565b6000610f8782610f8e565b9050919050565b6000610f9982610f40565b9050919050565b60005b83811015610fbe578082015181840152602081019050610fa3565b83811115610fcd576000848401525b50505050565b60006002820490506001821680610feb57607f821691505b60208210811415610fff57610ffe611063565b5b50919050565b7f4e487b7100000000000000000000000000000000000000000000000000000000600052601160045260246000fd5b7f4e487b7100000000000000000000000000000000000000000000000000000000600052601260045260246000fd5b7f4e487b7100000000000000000000000000000000000000000000000000000000600052602260045260246000fd5b6000601f19601f8301169050919050565b6110ac81610f1c565b81146110b757600080fd5b50565b6110c381610f2e565b81146110ce57600080fd5b50565b6110da81610f60565b81146110e557600080fd5b5056fea264697066735822122082688ce8648446fabdf00c0c5411300e9d30abaa00b25df52259e31e516a6d1864736f6c63430008000033",
  "immutableReferences": {},
  "source": "// SPDX-License-Identifier: MIT\npragma solidity ^0.8.0;\n\nimport \"@openzeppelin/contracts/finance/PaymentSplitter.sol\";\n\ncontract CampaignWallet is PaymentSplitter {\n    Beneficiary[] _beneficiaries;\n\n    struct Beneficiary {\n        address id;\n        string name;\n        string reason;\n    }\n\n    constructor(\n        address[] memory payees, uint256[] memory shares,\n        string[] memory names, string[] memory reasons\n    )\n        PaymentSplitter(payees, shares) payable \n    {\n        for (uint256 i = 0; i < payees.length; i++) {\n            _beneficiaries.push(Beneficiary({ id: payees[i], name: names[i], reason: reasons[i] }));\n        }\n    }\n\n    function beneficiaries() public view returns (Beneficiary[] memory) {\n        return _beneficiaries;\n    }\n}\n",
  "sourcePath": "/home/devilking6105/smart/contracts/CampaignWallet.sol",
  "compiler": {
    "name": "solc",
    "version": "0.8.0+commit.c7dfd78e.Emscripten.clang"
  },
  "schemaVersion": "3.4.13",
  "updatedAt": "2023-03-28T04:12:07.799Z",
  "networkType": "ethereum",
  "devdoc": {
    "kind": "dev",
    "methods": {
      "payee(uint256)": {
        "details": "Getter for the address of the payee number `index`."
      },
      "release(address)": {
        "details": "Triggers a transfer to `account` of the amount of Ether they are owed, according to their percentage of the total shares and their previous withdrawals."
      },
      "released(address)": {
        "details": "Getter for the amount of Ether already released to a payee."
      },
      "shares(address)": {
        "details": "Getter for the amount of shares held by an account."
      },
      "totalReleased()": {
        "details": "Getter for the total amount of Ether already released."
      },
      "totalShares()": {
        "details": "Getter for the total shares held by payees."
      }
    },
    "version": 1
  },
  "userdoc": {
    "kind": "user",
    "methods": {},
    "version": 1
  }
}