{
  "contractName": "CampaignFactory",
  "abi": [
    {
      "inputs": [],
      "stateMutability": "nonpayable",
      "type": "constructor"
    },
    {
      "anonymous": false,
      "inputs": [
        {
          "indexed": true,
          "internalType": "address",
          "name": "campaignId",
          "type": "address"
        }
      ],
      "name": "CampaignDeployed",
      "type": "event"
    },
    {
      "inputs": [],
      "name": "token",
      "outputs": [
        {
          "internalType": "address",
          "name": "",
          "type": "address"
        }
      ],
      "stateMutability": "view",
      "type": "function",
      "constant": true
    },
    {
      "inputs": [],
      "name": "deployedCampaigns",
      "outputs": [
        {
          "internalType": "address[]",
          "name": "",
          "type": "address[]"
        }
      ],
      "stateMutability": "view",
      "type": "function",
      "constant": true
    },
    {
      "inputs": [
        {
          "internalType": "address payable",
          "name": "wallet",
          "type": "address"
        },
        {
          "internalType": "uint256",
          "name": "goal",
          "type": "uint256"
        },
        {
          "internalType": "uint256",
          "name": "openingTime",
          "type": "uint256"
        },
        {
          "internalType": "uint256",
          "name": "closingTime",
          "type": "uint256"
        },
        {
          "internalType": "string",
          "name": "title",
          "type": "string"
        },
        {
          "internalType": "string",
          "name": "description",
          "type": "string"
        }
      ],
      "name": "createCampaign",
      "outputs": [],
      "stateMutability": "nonpayable",
      "type": "function"
    }
  ],
  "bytecode": "0x608060405234801561001057600080fd5b5060405161001d90610088565b61002690610116565b604051809103906000f080158015610042573d6000803e3d6000fd5b50600160006101000a81548173ffffffffffffffffffffffffffffffffffffffff021916908373ffffffffffffffffffffffffffffffffffffffff16021790555061015a565b611eb7806200526783390190565b60006100a3601383610149565b91507f536d617274204368617269747920546f6b656e000000000000000000000000006000830152602082019050919050565b60006100e3600383610149565b91507f53435400000000000000000000000000000000000000000000000000000000006000830152602082019050919050565b6000604082019050818103600083015261012f81610096565b90508181036020830152610142816100d6565b9050919050565b600082825260208201905092915050565b6150fd806200016a6000396000f3fe60806040523480156200001157600080fd5b506004361062000063576000357c0100000000000000000000000000000000000000000000000000000000900480638a2e03c11462000068578063d4b766ae1462000088578063fc0c546a14620000aa575b600080fd5b620000866004803603810190620000809190620003ff565b620000cc565b005b6200009262000297565b604051620000a19190620006c7565b60405180910390f35b620000b462000327565b604051620000c39190620005e1565b60405180910390f35b600086600160009054906101000a900473ffffffffffffffffffffffffffffffffffffffff16878787878733604051620001069062000351565b62000119989796959493929190620005fe565b604051809103906000f08015801562000136573d6000803e3d6000fd5b5090506000819080600181540180825580915050600190039060005260206000200160009091909190916101000a81548173ffffffffffffffffffffffffffffffffffffffff021916908373ffffffffffffffffffffffffffffffffffffffff160217905550600160009054906101000a900473ffffffffffffffffffffffffffffffffffffffff1673ffffffffffffffffffffffffffffffffffffffff166340c10f1982886040518363ffffffff167c0100000000000000000000000000000000000000000000000000000000028152600401620002179291906200069a565b600060405180830381600087803b1580156200023257600080fd5b505af115801562000247573d6000803e3d6000fd5b505050508073ffffffffffffffffffffffffffffffffffffffff167ff99defd7e2c12902f68e030ef6391d2a20ad54d6551052f1dbb79e6f8a1752fd60405160405180910390a250505050505050565b606060008054806020026020016040519081016040528092919081815260200182805480156200031d57602002820191906000526020600020905b8160009054906101000a900473ffffffffffffffffffffffffffffffffffffffff1673ffffffffffffffffffffffffffffffffffffffff1681526020019060010190808311620002d2575b5050505050905090565b6000600160009054906101000a900473ffffffffffffffffffffffffffffffffffffffff16905090565b6147ed80620008db83390190565b60006200037662000370846200071f565b620006eb565b9050828152602081018484840111156200038f57600080fd5b6200039c84828562000821565b509392505050565b600081359050620003b581620008a6565b92915050565b600082601f830112620003cd57600080fd5b8135620003df8482602086016200035f565b91505092915050565b600081359050620003f981620008c0565b92915050565b60008060008060008060c087890312156200041957600080fd5b60006200042989828a01620003a4565b96505060206200043c89828a01620003e8565b95505060406200044f89828a01620003e8565b94505060606200046289828a01620003e8565b935050608087013567ffffffffffffffff8111156200048057600080fd5b6200048e89828a01620003bb565b92505060a087013567ffffffffffffffff811115620004ac57600080fd5b620004ba89828a01620003bb565b9150509295509295509295565b6000620004d58383620004f2565b60208301905092915050565b620004ec81620007bb565b82525050565b620004fd81620007a7565b82525050565b6200050e81620007a7565b82525050565b6000620005218262000762565b6200052d818562000785565b93506200053a8362000752565b8060005b8381101562000571578151620005558882620004c7565b9750620005628362000778565b9250506001810190506200053e565b5085935050505092915050565b6200058981620007f9565b82525050565b60006200059c826200076d565b620005a8818562000796565b9350620005ba81856020860162000830565b620005c58162000895565b840191505092915050565b620005db81620007ef565b82525050565b6000602082019050620005f8600083018462000503565b92915050565b60006101008201905062000616600083018b620004e1565b62000625602083018a6200057e565b620006346040830189620005d0565b620006436060830188620005d0565b620006526080830187620005d0565b81810360a08301526200066681866200058f565b905081810360c08301526200067c81856200058f565b90506200068d60e083018462000503565b9998505050505050505050565b6000604082019050620006b1600083018562000503565b620006c06020830184620005d0565b9392505050565b60006020820190508181036000830152620006e3818462000514565b905092915050565b6000604051905081810181811067ffffffffffffffff8211171562000715576200071462000866565b5b8060405250919050565b600067ffffffffffffffff8211156200073d576200073c62000866565b5b601f19601f8301169050602081019050919050565b6000819050602082019050919050565b600081519050919050565b600081519050919050565b6000602082019050919050565b600082825260208201905092915050565b600082825260208201905092915050565b6000620007b482620007cf565b9050919050565b6000620007c882620007cf565b9050919050565b600073ffffffffffffffffffffffffffffffffffffffff82169050919050565b6000819050919050565b600062000806826200080d565b9050919050565b60006200081a82620007cf565b9050919050565b82818337600083830152505050565b60005b838110156200085057808201518184015260208101905062000833565b8381111562000860576000848401525b50505050565b7f4e487b7100000000000000000000000000000000000000000000000000000000600052604160045260246000fd5b6000601f19601f8301169050919050565b620008b181620007bb565b8114620008bd57600080fd5b50565b620008cb81620007ef565b8114620008d757600080fd5b5056fe60806040523480156200001157600080fd5b50604051620047ed380380620047ed8339818101604052810190620000379190620006cb565b85858560018b8b6001600081905550600083116200008c576040517f08c379a0000000000000000000000000000000000000000000000000000000008152600401620000839062000bca565b60405180910390fd5b600073ffffffffffffffffffffffffffffffffffffffff168273ffffffffffffffffffffffffffffffffffffffff161415620000ff576040517f08c379a0000000000000000000000000000000000000000000000000000000008152600401620000f69062000c0e565b60405180910390fd5b600073ffffffffffffffffffffffffffffffffffffffff168173ffffffffffffffffffffffffffffffffffffffff16141562000172576040517f08c379a0000000000000000000000000000000000000000000000000000000008152600401620001699062000ba8565b60405180910390fd5b8260038190555081600260006101000a81548173ffffffffffffffffffffffffffffffffffffffff021916908373ffffffffffffffffffffffffffffffffffffffff16021790555080600160006101000a81548173ffffffffffffffffffffffffffffffffffffffff021916908373ffffffffffffffffffffffffffffffffffffffff1602179055505050504282101562000244576040517f08c379a00000000000000000000000000000000000000000000000000000000081526004016200023b9062000afe565b60405180910390fd5b81811162000289576040517f08c379a0000000000000000000000000000000000000000000000000000000008152600401620002809062000b64565b60405180910390fd5b816005819055508060068190555050506000600760006101000a81548160ff02191690831515021790555060008111620002fa576040517f08c379a0000000000000000000000000000000000000000000000000000000008152600401620002f19062000b42565b60405180910390fd5b6200031362000515640100000000026401000000009004565b60405162000321906200053f565b6200032d919062000ae1565b604051809103906000f0801580156200034a573d6000803e3d6000fd5b50600960006101000a81548173ffffffffffffffffffffffffffffffffffffffff021916908373ffffffffffffffffffffffffffffffffffffffff16021790555080600881905550506000835111620003da576040517f08c379a0000000000000000000000000000000000000000000000000000000008152600401620003d19062000bec565b60405180910390fd5b600082511162000421576040517f08c379a0000000000000000000000000000000000000000000000000000000008152600401620004189062000b20565b60405180910390fd5b600073ffffffffffffffffffffffffffffffffffffffff168173ffffffffffffffffffffffffffffffffffffffff16141562000494576040517f08c379a00000000000000000000000000000000000000000000000000000000081526004016200048b9062000b86565b60405180910390fd5b82600b9080519060200190620004ac9291906200054d565b5081600c9080519060200190620004c59291906200054d565b5080600a60006101000a81548173ffffffffffffffffffffffffffffffffffffffff021916908373ffffffffffffffffffffffffffffffffffffffff160217905550505050505050505062000e40565b6000600260009054906101000a900473ffffffffffffffffffffffffffffffffffffffff16905090565b611b2c8062002cc183390190565b8280546200055b9062000d44565b90600052602060002090601f0160209004810192826200057f5760008555620005cb565b82601f106200059a57805160ff1916838001178555620005cb565b82800160010185558215620005cb579182015b82811115620005ca578251825591602001919060010190620005ad565b5b509050620005da9190620005de565b5090565b5b80821115620005f9576000816000905550600101620005df565b5090565b6000620006146200060e8462000c64565b62000c30565b9050828152602081018484840111156200062d57600080fd5b6200063a84828562000d0e565b509392505050565b600081519050620006538162000dd8565b92915050565b6000815190506200066a8162000df2565b92915050565b600081519050620006818162000e0c565b92915050565b600082601f8301126200069957600080fd5b8151620006ab848260208601620005fd565b91505092915050565b600081519050620006c58162000e26565b92915050565b600080600080600080600080610100898b031215620006e957600080fd5b6000620006f98b828c0162000659565b98505060206200070c8b828c0162000670565b97505060406200071f8b828c01620006b4565b9650506060620007328b828c01620006b4565b9550506080620007458b828c01620006b4565b94505060a089015167ffffffffffffffff8111156200076357600080fd5b620007718b828c0162000687565b93505060c089015167ffffffffffffffff8111156200078f57600080fd5b6200079d8b828c0162000687565b92505060e0620007b08b828c0162000642565b9150509295985092959890939650565b620007cb8162000cbc565b82525050565b6000620007e060338362000c97565b91507f54696d656443726f776473616c653a206f70656e696e672074696d652069732060008301527f6265666f72652063757272656e742074696d65000000000000000000000000006020830152604082019050919050565b600062000848601e8362000c97565b91507f43616d706169676e3a206465736372697074696f6e20697320656d70747900006000830152602082019050919050565b60006200088a601e8362000c97565b91507f526566756e6461626c6543726f776473616c653a20676f616c206973203000006000830152602082019050919050565b6000620008cc60378362000c97565b91507f54696d656443726f776473616c653a206f70656e696e672074696d652069732060008301527f6e6f74206265666f726520636c6f73696e672074696d650000000000000000006020830152604082019050919050565b60006200093460248362000c97565b91507f43616d706169676e3a206164647265737320697320746865207a65726f20616460008301527f64726573000000000000000000000000000000000000000000000000000000006020830152604082019050919050565b60006200099c60248362000c97565b91507f43726f776473616c653a20746f6b656e20697320746865207a65726f2061646460008301527f72657373000000000000000000000000000000000000000000000000000000006020830152604082019050919050565b600062000a0460148362000c97565b91507f43726f776473616c653a207261746520697320300000000000000000000000006000830152602082019050919050565b600062000a4660188362000c97565b91507f43616d706169676e3a207469746c6520697320656d70747900000000000000006000830152602082019050919050565b600062000a8860258362000c97565b91507f43726f776473616c653a2077616c6c657420697320746865207a65726f20616460008301527f64726573730000000000000000000000000000000000000000000000000000006020830152604082019050919050565b600060208201905062000af86000830184620007c0565b92915050565b6000602082019050818103600083015262000b1981620007d1565b9050919050565b6000602082019050818103600083015262000b3b8162000839565b9050919050565b6000602082019050818103600083015262000b5d816200087b565b9050919050565b6000602082019050818103600083015262000b7f81620008bd565b9050919050565b6000602082019050818103600083015262000ba18162000925565b9050919050565b6000602082019050818103600083015262000bc3816200098d565b9050919050565b6000602082019050818103600083015262000be581620009f5565b9050919050565b6000602082019050818103600083015262000c078162000a37565b9050919050565b6000602082019050818103600083015262000c298162000a79565b9050919050565b6000604051905081810181811067ffffffffffffffff8211171562000c5a5762000c5962000da9565b5b8060405250919050565b600067ffffffffffffffff82111562000c825762000c8162000da9565b5b601f19601f8301169050602081019050919050565b600082825260208201905092915050565b600062000cb58262000ce4565b9050919050565b600062000cc98262000ce4565b9050919050565b600062000cdd8262000ca8565b9050919050565b600073ffffffffffffffffffffffffffffffffffffffff82169050919050565b6000819050919050565b60005b8381101562000d2e57808201518184015260208101905062000d11565b8381111562000d3e576000848401525b50505050565b6000600282049050600182168062000d5d57607f821691505b6020821081141562000d745762000d7362000d7a565b5b50919050565b7f4e487b7100000000000000000000000000000000000000000000000000000000600052602260045260246000fd5b7f4e487b7100000000000000000000000000000000000000000000000000000000600052604160045260246000fd5b62000de38162000ca8565b811462000def57600080fd5b50565b62000dfd8162000cbc565b811462000e0957600080fd5b50565b62000e178162000cd0565b811462000e2357600080fd5b50565b62000e318162000d04565b811462000e3d57600080fd5b50565b611e718062000e506000396000f3fe608060405260043610610135576000357c010000000000000000000000000000000000000000000000000000000090048063521eb273116100bd578063b3f05b9711610081578063b3f05b97146103a9578063b7a8807c146103d4578063bffa55d5146103ff578063ec8ac4d814610428578063fc0c546a146104445761014c565b8063521eb273146102c05780636e5c2bb2146102eb5780637284e416146103285780637d3d652214610353578063a6c3e6b91461037e5761014c565b80634042b66f116101045780634042b66f146101fd57806347535d7b146102285780634a79d50c146102535780634b6753bc1461027e5780634bb278f3146102a95761014c565b80631515bc2b146101515780632c4e722e1461017c5780633087110a146101a757806340193883146101d25761014c565b3661014c5761014a61014561046f565b610477565b005b600080fd5b34801561015d57600080fd5b5061016661059d565b604051610173919061198d565b60405180910390f35b34801561018857600080fd5b506101916105a9565b60405161019e9190611b45565b60405180910390f35b3480156101b357600080fd5b506101bc6105b3565b6040516101c9919061196b565b60405180910390f35b3480156101de57600080fd5b506101e7610641565b6040516101f49190611b45565b60405180910390f35b34801561020957600080fd5b5061021261064b565b60405161021f9190611b45565b60405180910390f35b34801561023457600080fd5b5061023d610655565b60405161024a919061198d565b60405180910390f35b34801561025f57600080fd5b50610268610670565b60405161027591906119c3565b60405180910390f35b34801561028a57600080fd5b50610293610702565b6040516102a09190611b45565b60405180910390f35b3480156102b557600080fd5b506102be61070c565b005b3480156102cc57600080fd5b506102d56107f4565b6040516102e29190611927565b60405180910390f35b3480156102f757600080fd5b50610312600480360381019061030d919061139c565b61081e565b60405161031f9190611b45565b60405180910390f35b34801561033457600080fd5b5061033d610867565b60405161034a91906119c3565b60405180910390f35b34801561035f57600080fd5b506103686108f9565b604051610375919061198d565b60405180910390f35b34801561038a57600080fd5b5061039361090d565b6040516103a0919061190c565b60405180910390f35b3480156103b557600080fd5b506103be610937565b6040516103cb919061198d565b60405180910390f35b3480156103e057600080fd5b506103e961094e565b6040516103f69190611b45565b60405180910390f35b34801561040b57600080fd5b50610426600480360381019061042191906113c5565b610958565b005b610442600480360381019061043d919061139c565b610477565b005b34801561045057600080fd5b50610459610a93565b60405161046691906119a8565b60405180910390f35b600033905090565b600260005414156104bd576040517f08c379a00000000000000000000000000000000000000000000000000000000081526004016104b490611b05565b60405180910390fd5b600260008190555060003490506104d48282610abd565b60006104df82610b12565b90506104f682600454610b3090919063ffffffff16565b6004819055506105068382610b46565b8273ffffffffffffffffffffffffffffffffffffffff1661052561046f565b73ffffffffffffffffffffffffffffffffffffffff167f6faf93231a456e552dbc9961f58d9713ee4f2e69d15f1975b050ef0911053a7b848460405161056c929190611b60565b60405180910390a361057e8383610b54565b610586610c64565b6105908383610d17565b5050600160008190555050565b60006006544211905090565b6000600354905090565b6060600d80548060200260200160405190810160405280929190818152602001828054801561063757602002820191906000526020600020905b8160009054906101000a900473ffffffffffffffffffffffffffffffffffffffff1673ffffffffffffffffffffffffffffffffffffffff16815260200190600101908083116105ed575b5050505050905090565b6000600854905090565b6000600454905090565b6000600554421015801561066b57506006544211155b905090565b6060600b805461067f90611d55565b80601f01602080910402602001604051908101604052809291908181526020018280546106ab90611d55565b80156106f85780601f106106cd576101008083540402835291602001916106f8565b820191906000526020600020905b8154815290600101906020018083116106db57829003601f168201915b5050505050905090565b6000600654905090565b600760009054906101000a900460ff161561075c576040517f08c379a000000000000000000000000000000000000000000000000000000000815260040161075390611a45565b60405180910390fd5b61076461059d565b6107a3576040517f08c379a000000000000000000000000000000000000000000000000000000000815260040161079a90611a05565b60405180910390fd5b6001600760006101000a81548160ff0219169083151502179055506107c6610d1b565b7f9270cc390c096600a1c17c44345a1ba689fafd99d97487b10cfccf86cf73183660405160405180910390a1565b6000600260009054906101000a900473ffffffffffffffffffffffffffffffffffffffff16905090565b6000600e60008373ffffffffffffffffffffffffffffffffffffffff1673ffffffffffffffffffffffffffffffffffffffff168152602001908152602001600020549050919050565b6060600c805461087690611d55565b80601f01602080910402602001604051908101604052809291908181526020018280546108a290611d55565b80156108ef5780601f106108c4576101008083540402835291602001916108ef565b820191906000526020600020905b8154815290600101906020018083116108d257829003601f168201915b5050505050905090565b600060085461090661064b565b1015905090565b6000600a60009054906101000a900473ffffffffffffffffffffffffffffffffffffffff16905090565b6000600760009054906101000a900460ff16905090565b6000600554905090565b610960610937565b61099f576040517f08c379a000000000000000000000000000000000000000000000000000000000815260040161099690611aa5565b60405180910390fd5b6109a76108f9565b156109e7576040517f08c379a00000000000000000000000000000000000000000000000000000000081526004016109de90611a65565b60405180910390fd5b600960009054906101000a900473ffffffffffffffffffffffffffffffffffffffff1673ffffffffffffffffffffffffffffffffffffffff166351cff8d9826040518263ffffffff167c0100000000000000000000000000000000000000000000000000000000028152600401610a5e9190611927565b600060405180830381600087803b158015610a7857600080fd5b505af1158015610a8c573d6000803e3d6000fd5b5050505050565b6000600160009054906101000a900473ffffffffffffffffffffffffffffffffffffffff16905090565b610ac5610655565b610b04576040517f08c379a0000000000000000000000000000000000000000000000000000000008152600401610afb906119e5565b60405180910390fd5b610b0e8282610f12565b5050565b6000610b2960035483610fca90919063ffffffff16565b9050919050565b60008183610b3e9190611bf4565b905092915050565b610b508282610fe0565b5050565b6000600e60008473ffffffffffffffffffffffffffffffffffffffff1673ffffffffffffffffffffffffffffffffffffffff168152602001908152602001600020541415610c0057600d829080600181540180825580915050600190039060005260206000200160009091909190916101000a81548173ffffffffffffffffffffffffffffffffffffffff021916908373ffffffffffffffffffffffffffffffffffffffff1602179055505b80600e60008473ffffffffffffffffffffffffffffffffffffffff1673ffffffffffffffffffffffffffffffffffffffff1681526020019081526020016000206000828254610c4f9190611bf4565b92505081905550610c608282611031565b5050565b600960009054906101000a900473ffffffffffffffffffffffffffffffffffffffff1673ffffffffffffffffffffffffffffffffffffffff1663f340fa0134610cab61046f565b6040518363ffffffff167c0100000000000000000000000000000000000000000000000000000000028152600401610ce3919061190c565b6000604051808303818588803b158015610cfc57600080fd5b505af1158015610d10573d6000803e3d6000fd5b5050505050565b5050565b610d236108f9565b15610e6957600960009054906101000a900473ffffffffffffffffffffffffffffffffffffffff1673ffffffffffffffffffffffffffffffffffffffff166343d726d66040518163ffffffff167c0100000000000000000000000000000000000000000000000000000000028152600401600060405180830381600087803b158015610dae57600080fd5b505af1158015610dc2573d6000803e3d6000fd5b50505050600960009054906101000a900473ffffffffffffffffffffffffffffffffffffffff1673ffffffffffffffffffffffffffffffffffffffff16639af6549a6040518163ffffffff167c0100000000000000000000000000000000000000000000000000000000028152600401600060405180830381600087803b158015610e4c57600080fd5b505af1158015610e60573d6000803e3d6000fd5b50505050610f08565b600960009054906101000a900473ffffffffffffffffffffffffffffffffffffffff1673ffffffffffffffffffffffffffffffffffffffff16638c52dc416040518163ffffffff167c0100000000000000000000000000000000000000000000000000000000028152600401600060405180830381600087803b158015610eef57600080fd5b505af1158015610f03573d6000803e3d6000fd5b505050505b610f10611035565b565b600073ffffffffffffffffffffffffffffffffffffffff168273ffffffffffffffffffffffffffffffffffffffff161415610f82576040517f08c379a0000000000000000000000000000000000000000000000000000000008152600401610f7990611a85565b60405180910390fd5b6000811415610fc6576040517f08c379a0000000000000000000000000000000000000000000000000000000008152600401610fbd90611b25565b60405180910390fd5b5050565b60008183610fd89190611c4a565b905092915050565b61102d8282600160009054906101000a900473ffffffffffffffffffffffffffffffffffffffff1673ffffffffffffffffffffffffffffffffffffffff166110379092919063ffffffff16565b5050565b5050565b565b6110d48363a9059cbb7c0100000000000000000000000000000000000000000000000000000000028484604051602401611072929190611942565b604051602081830303815290604052907bffffffffffffffffffffffffffffffffffffffffffffffffffffffff19166020820180517bffffffffffffffffffffffffffffffffffffffffffffffffffffffff83818316178352505050506110d9565b505050565b600061113b826040518060400160405280602081526020017f5361666545524332303a206c6f772d6c6576656c2063616c6c206661696c65648152508573ffffffffffffffffffffffffffffffffffffffff166111a09092919063ffffffff16565b905060008151111561119b578080602001905181019061115b91906113ee565b61119a576040517f08c379a000000000000000000000000000000000000000000000000000000000815260040161119190611ae5565b60405180910390fd5b5b505050565b60606111af84846000856111b8565b90509392505050565b6060823073ffffffffffffffffffffffffffffffffffffffff16311015611214576040517f08c379a000000000000000000000000000000000000000000000000000000000815260040161120b90611a25565b60405180910390fd5b61121d856112e3565b61125c576040517f08c379a000000000000000000000000000000000000000000000000000000000815260040161125390611ac5565b60405180910390fd5b6000808673ffffffffffffffffffffffffffffffffffffffff16858760405161128591906118f5565b60006040518083038185875af1925050503d80600081146112c2576040519150601f19603f3d011682016040523d82523d6000602084013e6112c7565b606091505b50915091506112d78282866112f6565b92505050949350505050565b600080823b905060008111915050919050565b6060831561130657829050611356565b6000835111156113195782518084602001fd5b816040517f08c379a000000000000000000000000000000000000000000000000000000000815260040161134d91906119c3565b60405180910390fd5b9392505050565b60008135905061136c81611df6565b92915050565b60008135905061138181611e0d565b92915050565b60008151905061139681611e24565b92915050565b6000602082840312156113ae57600080fd5b60006113bc8482850161135d565b91505092915050565b6000602082840312156113d757600080fd5b60006113e584828501611372565b91505092915050565b60006020828403121561140057600080fd5b600061140e84828501611387565b91505092915050565b6000611423838361143e565b60208301905092915050565b61143881611cb6565b82525050565b61144781611ca4565b82525050565b61145681611ca4565b82525050565b600061146782611b99565b6114718185611bc7565b935061147c83611b89565b8060005b838110156114ad5781516114948882611417565b975061149f83611bba565b925050600181019050611480565b5085935050505092915050565b6114c381611cc8565b82525050565b60006114d482611ba4565b6114de8185611bd8565b93506114ee818560208601611d22565b80840191505092915050565b61150381611cfe565b82525050565b600061151482611baf565b61151e8185611be3565b935061152e818560208601611d22565b61153781611de5565b840191505092915050565b600061154f601883611be3565b91507f54696d656443726f776473616c653a206e6f74206f70656e00000000000000006000830152602082019050919050565b600061158f602083611be3565b91507f46696e616c697a61626c6543726f776473616c653a206e6f7420636c6f7365646000830152602082019050919050565b60006115cf602683611be3565b91507f416464726573733a20696e73756666696369656e742062616c616e636520666f60008301527f722063616c6c00000000000000000000000000000000000000000000000000006020830152604082019050919050565b6000611635602783611be3565b91507f46696e616c697a61626c6543726f776473616c653a20616c726561647920666960008301527f6e616c697a6564000000000000000000000000000000000000000000000000006020830152604082019050919050565b600061169b602183611be3565b91507f526566756e6461626c6543726f776473616c653a20676f616c2072656163686560008301527f64000000000000000000000000000000000000000000000000000000000000006020830152604082019050919050565b6000611701602a83611be3565b91507f43726f776473616c653a2062656e656669636961727920697320746865207a6560008301527f726f2061646472657373000000000000000000000000000000000000000000006020830152604082019050919050565b6000611767602283611be3565b91507f526566756e6461626c6543726f776473616c653a206e6f742066696e616c697a60008301527f65640000000000000000000000000000000000000000000000000000000000006020830152604082019050919050565b60006117cd601d83611be3565b91507f416464726573733a2063616c6c20746f206e6f6e2d636f6e74726163740000006000830152602082019050919050565b600061180d602a83611be3565b91507f5361666545524332303a204552433230206f7065726174696f6e20646964206e60008301527f6f742073756363656564000000000000000000000000000000000000000000006020830152604082019050919050565b6000611873601f83611be3565b91507f5265656e7472616e637947756172643a207265656e7472616e742063616c6c006000830152602082019050919050565b60006118b3601983611be3565b91507f43726f776473616c653a20776569416d6f756e742069732030000000000000006000830152602082019050919050565b6118ef81611cf4565b82525050565b600061190182846114c9565b915081905092915050565b6000602082019050611921600083018461144d565b92915050565b600060208201905061193c600083018461142f565b92915050565b6000604082019050611957600083018561144d565b61196460208301846118e6565b9392505050565b60006020820190508181036000830152611985818461145c565b905092915050565b60006020820190506119a260008301846114ba565b92915050565b60006020820190506119bd60008301846114fa565b92915050565b600060208201905081810360008301526119dd8184611509565b905092915050565b600060208201905081810360008301526119fe81611542565b9050919050565b60006020820190508181036000830152611a1e81611582565b9050919050565b60006020820190508181036000830152611a3e816115c2565b9050919050565b60006020820190508181036000830152611a5e81611628565b9050919050565b60006020820190508181036000830152611a7e8161168e565b9050919050565b60006020820190508181036000830152611a9e816116f4565b9050919050565b60006020820190508181036000830152611abe8161175a565b9050919050565b60006020820190508181036000830152611ade816117c0565b9050919050565b60006020820190508181036000830152611afe81611800565b9050919050565b60006020820190508181036000830152611b1e81611866565b9050919050565b60006020820190508181036000830152611b3e816118a6565b9050919050565b6000602082019050611b5a60008301846118e6565b92915050565b6000604082019050611b7560008301856118e6565b611b8260208301846118e6565b9392505050565b6000819050602082019050919050565b600081519050919050565b600081519050919050565b600081519050919050565b6000602082019050919050565b600082825260208201905092915050565b600081905092915050565b600082825260208201905092915050565b6000611bff82611cf4565b9150611c0a83611cf4565b9250827fffffffffffffffffffffffffffffffffffffffffffffffffffffffffffffffff03821115611c3f57611c3e611d87565b5b828201905092915050565b6000611c5582611cf4565b9150611c6083611cf4565b9250817fffffffffffffffffffffffffffffffffffffffffffffffffffffffffffffffff0483118215151615611c9957611c98611d87565b5b828202905092915050565b6000611caf82611cd4565b9050919050565b6000611cc182611cd4565b9050919050565b60008115159050919050565b600073ffffffffffffffffffffffffffffffffffffffff82169050919050565b6000819050919050565b6000611d0982611d10565b9050919050565b6000611d1b82611cd4565b9050919050565b60005b83811015611d40578082015181840152602081019050611d25565b83811115611d4f576000848401525b50505050565b60006002820490506001821680611d6d57607f821691505b60208210811415611d8157611d80611db6565b5b50919050565b7f4e487b7100000000000000000000000000000000000000000000000000000000600052601160045260246000fd5b7f4e487b7100000000000000000000000000000000000000000000000000000000600052602260045260246000fd5b6000601f19601f8301169050919050565b611dff81611ca4565b8114611e0a57600080fd5b50565b611e1681611cb6565b8114611e2157600080fd5b50565b611e2d81611cc8565b8114611e3857600080fd5b5056fea2646970667358221220e7e81b90fd53e78a11db097df0e9a8152b8d937cccfbcc6f282eee0aa59519c764736f6c6343000800003360a06040523480156200001157600080fd5b5060405162001b2c38038062001b2c83398181016040528101906200003791906200021e565b600062000052620001ff640100000000026401000000009004565b9050806000806101000a81548173ffffffffffffffffffffffffffffffffffffffff021916908373ffffffffffffffffffffffffffffffffffffffff1602179055508073ffffffffffffffffffffffffffffffffffffffff16600073ffffffffffffffffffffffffffffffffffffffff167f8be0079c531659141344cd1fd0a4f28419497f9722a3daafe3b4186f6b6457e060405160405180910390a350600073ffffffffffffffffffffffffffffffffffffffff168173ffffffffffffffffffffffffffffffffffffffff16141562000163576040517f08c379a00000000000000000000000000000000000000000000000000000000081526004016200015a90620002b2565b60405180910390fd5b8073ffffffffffffffffffffffffffffffffffffffff1660808173ffffffffffffffffffffffffffffffffffffffff166c0100000000000000000000000002815250506000600260006101000a81548160ff02191690836002811115620001f3577f4e487b7100000000000000000000000000000000000000000000000000000000600052602160045260246000fd5b02179055505062000333565b600033905090565b600081519050620002188162000319565b92915050565b6000602082840312156200023157600080fd5b6000620002418482850162000207565b91505092915050565b600062000259602d83620002d4565b91507f526566756e64457363726f773a2062656e65666963696172792069732074686560008301527f207a65726f2061646472657373000000000000000000000000000000000000006020830152604082019050919050565b60006020820190508181036000830152620002cd816200024a565b9050919050565b600082825260208201905092915050565b6000620002f282620002f9565b9050919050565b600073ffffffffffffffffffffffffffffffffffffffff82169050919050565b6200032481620002e5565b81146200033057600080fd5b50565b6080516c0100000000000000000000000090046117cd6200035f600039600061029201526117cd6000f3fe6080604052600436106100c4576000357c0100000000000000000000000000000000000000000000000000000000900480638da5cb5b116100815780638da5cb5b1461019f5780639af6549a146101ca578063c19d93fb146101e1578063e3a9db1a1461020c578063f2fde38b14610249578063f340fa0114610272576100c4565b806338af3eed146100c957806343d726d6146100f457806351cff8d91461010b578063685ca19414610134578063715018a6146101715780638c52dc4114610188575b600080fd5b3480156100d557600080fd5b506100de61028e565b6040516100eb919061147a565b60405180910390f35b34801561010057600080fd5b506101096102b6565b005b34801561011757600080fd5b50610132600480360381019061012d9190611072565b61046a565b005b34801561014057600080fd5b5061015b60048036038101906101569190611049565b6104be565b6040516101689190611495565b60405180910390f35b34801561017d57600080fd5b50610186610542565b005b34801561019457600080fd5b5061019d61067c565b005b3480156101ab57600080fd5b506101b4610831565b6040516101c1919061145f565b60405180910390f35b3480156101d657600080fd5b506101df61085a565b005b3480156101ed57600080fd5b506101f661095c565b60405161020391906114b0565b60405180910390f35b34801561021857600080fd5b50610233600480360381019061022e9190611049565b610973565b60405161024091906115eb565b60405180910390f35b34801561025557600080fd5b50610270600480360381019061026b9190611049565b6109bc565b005b61028c60048036038101906102879190611049565b610b65565b005b60007f0000000000000000000000000000000000000000000000000000000000000000905090565b6102be610c2b565b73ffffffffffffffffffffffffffffffffffffffff166102dc610831565b73ffffffffffffffffffffffffffffffffffffffff1614610332576040517f08c379a0000000000000000000000000000000000000000000000000000000008152600401610329906115ab565b60405180910390fd5b6000600281111561036c577f4e487b7100000000000000000000000000000000000000000000000000000000600052602160045260246000fd5b61037461095c565b60028111156103ac577f4e487b7100000000000000000000000000000000000000000000000000000000600052602160045260246000fd5b146103ec576040517f08c379a00000000000000000000000000000000000000000000000000000000081526004016103e39061158b565b60405180910390fd5b60028060006101000a81548160ff02191690836002811115610437577f4e487b7100000000000000000000000000000000000000000000000000000000600052602160045260246000fd5b02179055507f088672c3a6e342f7cd94a65ba63b79df24a8973927b4d05d803c44bbf787d12f60405160405180910390a1565b610473816104be565b6104b2576040517f08c379a00000000000000000000000000000000000000000000000000000000081526004016104a99061156b565b60405180910390fd5b6104bb81610c33565b50565b6000600160028111156104fa577f4e487b7100000000000000000000000000000000000000000000000000000000600052602160045260246000fd5b61050261095c565b600281111561053a577f4e487b7100000000000000000000000000000000000000000000000000000000600052602160045260246000fd5b149050919050565b61054a610c2b565b73ffffffffffffffffffffffffffffffffffffffff16610568610831565b73ffffffffffffffffffffffffffffffffffffffff16146105be576040517f08c379a00000000000000000000000000000000000000000000000000000000081526004016105b5906115ab565b60405180910390fd5b600073ffffffffffffffffffffffffffffffffffffffff1660008054906101000a900473ffffffffffffffffffffffffffffffffffffffff1673ffffffffffffffffffffffffffffffffffffffff167f8be0079c531659141344cd1fd0a4f28419497f9722a3daafe3b4186f6b6457e060405160405180910390a360008060006101000a81548173ffffffffffffffffffffffffffffffffffffffff021916908373ffffffffffffffffffffffffffffffffffffffff160217905550565b610684610c2b565b73ffffffffffffffffffffffffffffffffffffffff166106a2610831565b73ffffffffffffffffffffffffffffffffffffffff16146106f8576040517f08c379a00000000000000000000000000000000000000000000000000000000081526004016106ef906115ab565b60405180910390fd5b60006002811115610732577f4e487b7100000000000000000000000000000000000000000000000000000000600052602160045260246000fd5b61073a61095c565b6002811115610772577f4e487b7100000000000000000000000000000000000000000000000000000000600052602160045260246000fd5b146107b2576040517f08c379a00000000000000000000000000000000000000000000000000000000081526004016107a9906115cb565b60405180910390fd5b6001600260006101000a81548160ff021916908360028111156107fe577f4e487b7100000000000000000000000000000000000000000000000000000000600052602160045260246000fd5b02179055507f599d8e5a83cffb867d051598c4d70e805d59802d8081c1c7d6dffc5b6aca2b8960405160405180910390a1565b60008060009054906101000a900473ffffffffffffffffffffffffffffffffffffffff16905090565b600280811115610893577f4e487b7100000000000000000000000000000000000000000000000000000000600052602160045260246000fd5b61089b61095c565b60028111156108d3577f4e487b7100000000000000000000000000000000000000000000000000000000600052602160045260246000fd5b14610913576040517f08c379a000000000000000000000000000000000000000000000000000000000815260040161090a906114cb565b60405180910390fd5b61095a3073ffffffffffffffffffffffffffffffffffffffff163161093661028e565b73ffffffffffffffffffffffffffffffffffffffff16610db390919063ffffffff16565b565b6000600260009054906101000a900460ff16905090565b6000600160008373ffffffffffffffffffffffffffffffffffffffff1673ffffffffffffffffffffffffffffffffffffffff168152602001908152602001600020549050919050565b6109c4610c2b565b73ffffffffffffffffffffffffffffffffffffffff166109e2610831565b73ffffffffffffffffffffffffffffffffffffffff1614610a38576040517f08c379a0000000000000000000000000000000000000000000000000000000008152600401610a2f906115ab565b60405180910390fd5b600073ffffffffffffffffffffffffffffffffffffffff168173ffffffffffffffffffffffffffffffffffffffff161415610aa8576040517f08c379a0000000000000000000000000000000000000000000000000000000008152600401610a9f906114eb565b60405180910390fd5b8073ffffffffffffffffffffffffffffffffffffffff1660008054906101000a900473ffffffffffffffffffffffffffffffffffffffff1673ffffffffffffffffffffffffffffffffffffffff167f8be0079c531659141344cd1fd0a4f28419497f9722a3daafe3b4186f6b6457e060405160405180910390a3806000806101000a81548173ffffffffffffffffffffffffffffffffffffffff021916908373ffffffffffffffffffffffffffffffffffffffff16021790555050565b60006002811115610b9f577f4e487b7100000000000000000000000000000000000000000000000000000000600052602160045260246000fd5b610ba761095c565b6002811115610bdf577f4e487b7100000000000000000000000000000000000000000000000000000000600052602160045260246000fd5b14610c1f576040517f08c379a0000000000000000000000000000000000000000000000000000000008152600401610c169061154b565b60405180910390fd5b610c2881610ebe565b50565b600033905090565b610c3b610c2b565b73ffffffffffffffffffffffffffffffffffffffff16610c59610831565b73ffffffffffffffffffffffffffffffffffffffff1614610caf576040517f08c379a0000000000000000000000000000000000000000000000000000000008152600401610ca6906115ab565b60405180910390fd5b6000600160008373ffffffffffffffffffffffffffffffffffffffff1673ffffffffffffffffffffffffffffffffffffffff1681526020019081526020016000205490506000600160008473ffffffffffffffffffffffffffffffffffffffff1673ffffffffffffffffffffffffffffffffffffffff16815260200190815260200160002081905550610d61818373ffffffffffffffffffffffffffffffffffffffff16610db390919063ffffffff16565b8173ffffffffffffffffffffffffffffffffffffffff167f7084f5476618d8e60b11ef0d7d3f06914655adb8793e28ff7f018d4c76d505d582604051610da791906115eb565b60405180910390a25050565b803073ffffffffffffffffffffffffffffffffffffffff16311015610e0d576040517f08c379a0000000000000000000000000000000000000000000000000000000008152600401610e049061152b565b60405180910390fd5b60008273ffffffffffffffffffffffffffffffffffffffff1682604051610e339061144a565b60006040518083038185875af1925050503d8060008114610e70576040519150601f19603f3d011682016040523d82523d6000602084013e610e75565b606091505b5050905080610eb9576040517f08c379a0000000000000000000000000000000000000000000000000000000008152600401610eb09061150b565b60405180910390fd5b505050565b610ec6610c2b565b73ffffffffffffffffffffffffffffffffffffffff16610ee4610831565b73ffffffffffffffffffffffffffffffffffffffff1614610f3a576040517f08c379a0000000000000000000000000000000000000000000000000000000008152600401610f31906115ab565b60405180910390fd5b600034905080600160008473ffffffffffffffffffffffffffffffffffffffff1673ffffffffffffffffffffffffffffffffffffffff16815260200190815260200160002054610f8a9190611622565b600160008473ffffffffffffffffffffffffffffffffffffffff1673ffffffffffffffffffffffffffffffffffffffff168152602001908152602001600020819055508173ffffffffffffffffffffffffffffffffffffffff167f2da466a7b24304f47e87fa2e1e5a81b9831ce54fec19055ce277ca2f39ba42c48260405161101391906115eb565b60405180910390a25050565b60008135905061102e81611769565b92915050565b60008135905061104381611780565b92915050565b60006020828403121561105b57600080fd5b60006110698482850161101f565b91505092915050565b60006020828403121561108457600080fd5b600061109284828501611034565b91505092915050565b6110a48161168a565b82525050565b6110b381611678565b82525050565b6110c28161169c565b82525050565b6110d1816116e5565b82525050565b60006110e4603883611611565b91507f526566756e64457363726f773a2062656e65666963696172792063616e206f6e60008301527f6c79207769746864726177207768696c6520636c6f73656400000000000000006020830152604082019050919050565b600061114a602683611611565b91507f4f776e61626c653a206e6577206f776e657220697320746865207a65726f206160008301527f64647265737300000000000000000000000000000000000000000000000000006020830152604082019050919050565b60006111b0603a83611611565b91507f416464726573733a20756e61626c6520746f2073656e642076616c75652c207260008301527f6563697069656e74206d617920686176652072657665727465640000000000006020830152604082019050919050565b6000611216601d83611611565b91507f416464726573733a20696e73756666696369656e742062616c616e63650000006000830152602082019050919050565b6000611256602b83611611565b91507f526566756e64457363726f773a2063616e206f6e6c79206465706f736974207760008301527f68696c65206163746976650000000000000000000000000000000000000000006020830152604082019050919050565b60006112bc603383611611565b91507f436f6e646974696f6e616c457363726f773a207061796565206973206e6f742060008301527f616c6c6f77656420746f207769746864726177000000000000000000000000006020830152604082019050919050565b6000611322602983611611565b91507f526566756e64457363726f773a2063616e206f6e6c7920636c6f73652077686960008301527f6c652061637469766500000000000000000000000000000000000000000000006020830152604082019050919050565b6000611388602083611611565b91507f4f776e61626c653a2063616c6c6572206973206e6f7420746865206f776e65726000830152602082019050919050565b60006113c8600083611606565b9150600082019050919050565b60006113e2603283611611565b91507f526566756e64457363726f773a2063616e206f6e6c7920656e61626c6520726560008301527f66756e6473207768696c652061637469766500000000000000000000000000006020830152604082019050919050565b611444816116db565b82525050565b6000611455826113bb565b9150819050919050565b600060208201905061147460008301846110aa565b92915050565b600060208201905061148f600083018461109b565b92915050565b60006020820190506114aa60008301846110b9565b92915050565b60006020820190506114c560008301846110c8565b92915050565b600060208201905081810360008301526114e4816110d7565b9050919050565b600060208201905081810360008301526115048161113d565b9050919050565b60006020820190508181036000830152611524816111a3565b9050919050565b6000602082019050818103600083015261154481611209565b9050919050565b6000602082019050818103600083015261156481611249565b9050919050565b60006020820190508181036000830152611584816112af565b9050919050565b600060208201905081810360008301526115a481611315565b9050919050565b600060208201905081810360008301526115c48161137b565b9050919050565b600060208201905081810360008301526115e4816113d5565b9050919050565b6000602082019050611600600083018461143b565b92915050565b600081905092915050565b600082825260208201905092915050565b600061162d826116db565b9150611638836116db565b9250827fffffffffffffffffffffffffffffffffffffffffffffffffffffffffffffffff0382111561166d5761166c6116f7565b5b828201905092915050565b6000611683826116bb565b9050919050565b6000611695826116bb565b9050919050565b60008115159050919050565b60008190506116b682611755565b919050565b600073ffffffffffffffffffffffffffffffffffffffff82169050919050565b6000819050919050565b60006116f0826116a8565b9050919050565b7f4e487b7100000000000000000000000000000000000000000000000000000000600052601160045260246000fd5b7f4e487b7100000000000000000000000000000000000000000000000000000000600052602160045260246000fd5b6003811061176657611765611726565b5b50565b61177281611678565b811461177d57600080fd5b50565b6117898161168a565b811461179457600080fd5b5056fea2646970667358221220ce322576c9add39c4aa13deaab6a7586b7f0257c3d1a03597de2a268e15b571064736f6c63430008000033a26469706673582212209e767b1066d2d98bc2924042b4a41aaabaf573e1a260c2b71a33dfc3b57f202164736f6c6343000800003360806040523480156200001157600080fd5b5060405162001eb738038062001eb7833981810160405281019062000037919062000259565b818181600390805190602001906200005192919062000137565b5080600490805190602001906200006a92919062000137565b5050506000620000886200012f640100000000026401000000009004565b905080600560006101000a81548173ffffffffffffffffffffffffffffffffffffffff021916908373ffffffffffffffffffffffffffffffffffffffff1602179055508073ffffffffffffffffffffffffffffffffffffffff16600073ffffffffffffffffffffffffffffffffffffffff167f8be0079c531659141344cd1fd0a4f28419497f9722a3daafe3b4186f6b6457e060405160405180910390a3505050620003fd565b600033905090565b828054620001459062000369565b90600052602060002090601f016020900481019282620001695760008555620001b5565b82601f106200018457805160ff1916838001178555620001b5565b82800160010185558215620001b5579182015b82811115620001b457825182559160200191906001019062000197565b5b509050620001c49190620001c8565b5090565b5b80821115620001e3576000816000905550600101620001c9565b5090565b6000620001fe620001f88462000300565b620002cc565b9050828152602081018484840111156200021757600080fd5b6200022484828562000333565b509392505050565b600082601f8301126200023e57600080fd5b815162000250848260208601620001e7565b91505092915050565b600080604083850312156200026d57600080fd5b600083015167ffffffffffffffff8111156200028857600080fd5b62000296858286016200022c565b925050602083015167ffffffffffffffff811115620002b457600080fd5b620002c2858286016200022c565b9150509250929050565b6000604051905081810181811067ffffffffffffffff82111715620002f657620002f5620003ce565b5b8060405250919050565b600067ffffffffffffffff8211156200031e576200031d620003ce565b5b601f19601f8301169050602081019050919050565b60005b838110156200035357808201518184015260208101905062000336565b8381111562000363576000848401525b50505050565b600060028204905060018216806200038257607f821691505b602082108114156200039957620003986200039f565b5b50919050565b7f4e487b7100000000000000000000000000000000000000000000000000000000600052602260045260246000fd5b7f4e487b7100000000000000000000000000000000000000000000000000000000600052604160045260246000fd5b611aaa806200040d6000396000f3fe608060405234801561001057600080fd5b5060043610610112576000357c01000000000000000000000000000000000000000000000000000000009004806370a08231116100b4578063a457c2d711610083578063a457c2d714610293578063a9059cbb146102c3578063dd62ed3e146102f3578063f2fde38b1461032357610112565b806370a082311461021d578063715018a61461024d5780638da5cb5b1461025757806395d89b411461027557610112565b806323b872dd116100f057806323b872dd14610183578063313ce567146101b357806339509351146101d157806340c10f191461020157610112565b806306fdde0314610117578063095ea7b31461013557806318160ddd14610165575b600080fd5b61011f61033f565b60405161012c91906116df565b60405180910390f35b61014f600480360381019061014a9190611248565b6103d1565b60405161015c91906116c4565b60405180910390f35b61016d6103ef565b60405161017a9190611841565b60405180910390f35b61019d600480360381019061019891906111f9565b6103f9565b6040516101aa91906116c4565b60405180910390f35b6101bb6104fa565b6040516101c8919061185c565b60405180910390f35b6101eb60048036038101906101e69190611248565b610503565b6040516101f891906116c4565b60405180910390f35b61021b60048036038101906102169190611248565b6105af565b005b61023760048036038101906102329190611194565b610639565b6040516102449190611841565b60405180910390f35b610255610681565b005b61025f6107be565b60405161026c91906116a9565b60405180910390f35b61027d6107e8565b60405161028a91906116df565b60405180910390f35b6102ad60048036038101906102a89190611248565b61087a565b6040516102ba91906116c4565b60405180910390f35b6102dd60048036038101906102d89190611248565b61096e565b6040516102ea91906116c4565b60405180910390f35b61030d600480360381019061030891906111bd565b61098c565b60405161031a9190611841565b60405180910390f35b61033d60048036038101906103389190611194565b610a13565b005b60606003805461034e906119a5565b80601f016020809104026020016040519081016040528092919081815260200182805461037a906119a5565b80156103c75780601f1061039c576101008083540402835291602001916103c7565b820191906000526020600020905b8154815290600101906020018083116103aa57829003601f168201915b5050505050905090565b60006103e56103de610bbf565b8484610bc7565b6001905092915050565b6000600254905090565b6000610406848484610d92565b6000600160008673ffffffffffffffffffffffffffffffffffffffff1673ffffffffffffffffffffffffffffffffffffffff1681526020019081526020016000206000610451610bbf565b73ffffffffffffffffffffffffffffffffffffffff1673ffffffffffffffffffffffffffffffffffffffff168152602001908152602001600020549050828110156104d1576040517f08c379a00000000000000000000000000000000000000000000000000000000081526004016104c890611781565b60405180910390fd5b6104ee856104dd610bbf565b85846104e991906118e9565b610bc7565b60019150509392505050565b60006012905090565b60006105a5610510610bbf565b84846001600061051e610bbf565b73ffffffffffffffffffffffffffffffffffffffff1673ffffffffffffffffffffffffffffffffffffffff16815260200190815260200160002060008873ffffffffffffffffffffffffffffffffffffffff1673ffffffffffffffffffffffffffffffffffffffff168152602001908152602001600020546105a09190611893565b610bc7565b6001905092915050565b6105b7610bbf565b73ffffffffffffffffffffffffffffffffffffffff166105d56107be565b73ffffffffffffffffffffffffffffffffffffffff161461062b576040517f08c379a0000000000000000000000000000000000000000000000000000000008152600401610622906117a1565b60405180910390fd5b6106358282611011565b5050565b60008060008373ffffffffffffffffffffffffffffffffffffffff1673ffffffffffffffffffffffffffffffffffffffff168152602001908152602001600020549050919050565b610689610bbf565b73ffffffffffffffffffffffffffffffffffffffff166106a76107be565b73ffffffffffffffffffffffffffffffffffffffff16146106fd576040517f08c379a00000000000000000000000000000000000000000000000000000000081526004016106f4906117a1565b60405180910390fd5b600073ffffffffffffffffffffffffffffffffffffffff16600560009054906101000a900473ffffffffffffffffffffffffffffffffffffffff1673ffffffffffffffffffffffffffffffffffffffff167f8be0079c531659141344cd1fd0a4f28419497f9722a3daafe3b4186f6b6457e060405160405180910390a36000600560006101000a81548173ffffffffffffffffffffffffffffffffffffffff021916908373ffffffffffffffffffffffffffffffffffffffff160217905550565b6000600560009054906101000a900473ffffffffffffffffffffffffffffffffffffffff16905090565b6060600480546107f7906119a5565b80601f0160208091040260200160405190810160405280929190818152602001828054610823906119a5565b80156108705780601f1061084557610100808354040283529160200191610870565b820191906000526020600020905b81548152906001019060200180831161085357829003601f168201915b5050505050905090565b60008060016000610889610bbf565b73ffffffffffffffffffffffffffffffffffffffff1673ffffffffffffffffffffffffffffffffffffffff16815260200190815260200160002060008573ffffffffffffffffffffffffffffffffffffffff1673ffffffffffffffffffffffffffffffffffffffff16815260200190815260200160002054905082811015610946576040517f08c379a000000000000000000000000000000000000000000000000000000000815260040161093d90611801565b60405180910390fd5b610963610951610bbf565b85858461095e91906118e9565b610bc7565b600191505092915050565b600061098261097b610bbf565b8484610d92565b6001905092915050565b6000600160008473ffffffffffffffffffffffffffffffffffffffff1673ffffffffffffffffffffffffffffffffffffffff16815260200190815260200160002060008373ffffffffffffffffffffffffffffffffffffffff1673ffffffffffffffffffffffffffffffffffffffff16815260200190815260200160002054905092915050565b610a1b610bbf565b73ffffffffffffffffffffffffffffffffffffffff16610a396107be565b73ffffffffffffffffffffffffffffffffffffffff1614610a8f576040517f08c379a0000000000000000000000000000000000000000000000000000000008152600401610a86906117a1565b60405180910390fd5b600073ffffffffffffffffffffffffffffffffffffffff168173ffffffffffffffffffffffffffffffffffffffff161415610aff576040517f08c379a0000000000000000000000000000000000000000000000000000000008152600401610af690611721565b60405180910390fd5b8073ffffffffffffffffffffffffffffffffffffffff16600560009054906101000a900473ffffffffffffffffffffffffffffffffffffffff1673ffffffffffffffffffffffffffffffffffffffff167f8be0079c531659141344cd1fd0a4f28419497f9722a3daafe3b4186f6b6457e060405160405180910390a380600560006101000a81548173ffffffffffffffffffffffffffffffffffffffff021916908373ffffffffffffffffffffffffffffffffffffffff16021790555050565b600033905090565b600073ffffffffffffffffffffffffffffffffffffffff168373ffffffffffffffffffffffffffffffffffffffff161415610c37576040517f08c379a0000000000000000000000000000000000000000000000000000000008152600401610c2e906117e1565b60405180910390fd5b600073ffffffffffffffffffffffffffffffffffffffff168273ffffffffffffffffffffffffffffffffffffffff161415610ca7576040517f08c379a0000000000000000000000000000000000000000000000000000000008152600401610c9e90611741565b60405180910390fd5b80600160008573ffffffffffffffffffffffffffffffffffffffff1673ffffffffffffffffffffffffffffffffffffffff16815260200190815260200160002060008473ffffffffffffffffffffffffffffffffffffffff1673ffffffffffffffffffffffffffffffffffffffff168152602001908152602001600020819055508173ffffffffffffffffffffffffffffffffffffffff168373ffffffffffffffffffffffffffffffffffffffff167f8c5be1e5ebec7d5bd14f71427d1e84f3dd0314c0f7b2291e5b200ac8c7c3b92583604051610d859190611841565b60405180910390a3505050565b600073ffffffffffffffffffffffffffffffffffffffff168373ffffffffffffffffffffffffffffffffffffffff161415610e02576040517f08c379a0000000000000000000000000000000000000000000000000000000008152600401610df9906117c1565b60405180910390fd5b600073ffffffffffffffffffffffffffffffffffffffff168273ffffffffffffffffffffffffffffffffffffffff161415610e72576040517f08c379a0000000000000000000000000000000000000000000000000000000008152600401610e6990611701565b60405180910390fd5b610e7d838383611165565b60008060008573ffffffffffffffffffffffffffffffffffffffff1673ffffffffffffffffffffffffffffffffffffffff16815260200190815260200160002054905081811015610f03576040517f08c379a0000000000000000000000000000000000000000000000000000000008152600401610efa90611761565b60405180910390fd5b8181610f0f91906118e9565b6000808673ffffffffffffffffffffffffffffffffffffffff1673ffffffffffffffffffffffffffffffffffffffff16815260200190815260200160002081905550816000808573ffffffffffffffffffffffffffffffffffffffff1673ffffffffffffffffffffffffffffffffffffffff1681526020019081526020016000206000828254610f9f9190611893565b925050819055508273ffffffffffffffffffffffffffffffffffffffff168473ffffffffffffffffffffffffffffffffffffffff167fddf252ad1be2c89b69c2b068fc378daa952ba7f163c4a11628f55a4df523b3ef846040516110039190611841565b60405180910390a350505050565b600073ffffffffffffffffffffffffffffffffffffffff168273ffffffffffffffffffffffffffffffffffffffff161415611081576040517f08c379a000000000000000000000000000000000000000000000000000000000815260040161107890611821565b60405180910390fd5b61108d60008383611165565b806002600082825461109f9190611893565b92505081905550806000808473ffffffffffffffffffffffffffffffffffffffff1673ffffffffffffffffffffffffffffffffffffffff16815260200190815260200160002060008282546110f49190611893565b925050819055508173ffffffffffffffffffffffffffffffffffffffff16600073ffffffffffffffffffffffffffffffffffffffff167fddf252ad1be2c89b69c2b068fc378daa952ba7f163c4a11628f55a4df523b3ef836040516111599190611841565b60405180910390a35050565b505050565b60008135905061117981611a46565b92915050565b60008135905061118e81611a5d565b92915050565b6000602082840312156111a657600080fd5b60006111b48482850161116a565b91505092915050565b600080604083850312156111d057600080fd5b60006111de8582860161116a565b92505060206111ef8582860161116a565b9150509250929050565b60008060006060848603121561120e57600080fd5b600061121c8682870161116a565b935050602061122d8682870161116a565b925050604061123e8682870161117f565b9150509250925092565b6000806040838503121561125b57600080fd5b60006112698582860161116a565b925050602061127a8582860161117f565b9150509250929050565b61128d8161191d565b82525050565b61129c8161192f565b82525050565b60006112ad82611877565b6112b78185611882565b93506112c7818560208601611972565b6112d081611a35565b840191505092915050565b60006112e8602383611882565b91507f45524332303a207472616e7366657220746f20746865207a65726f206164647260008301527f65737300000000000000000000000000000000000000000000000000000000006020830152604082019050919050565b600061134e602683611882565b91507f4f776e61626c653a206e6577206f776e657220697320746865207a65726f206160008301527f64647265737300000000000000000000000000000000000000000000000000006020830152604082019050919050565b60006113b4602283611882565b91507f45524332303a20617070726f766520746f20746865207a65726f20616464726560008301527f73730000000000000000000000000000000000000000000000000000000000006020830152604082019050919050565b600061141a602683611882565b91507f45524332303a207472616e7366657220616d6f756e742065786365656473206260008301527f616c616e636500000000000000000000000000000000000000000000000000006020830152604082019050919050565b6000611480602883611882565b91507f45524332303a207472616e7366657220616d6f756e742065786365656473206160008301527f6c6c6f77616e63650000000000000000000000000000000000000000000000006020830152604082019050919050565b60006114e6602083611882565b91507f4f776e61626c653a2063616c6c6572206973206e6f7420746865206f776e65726000830152602082019050919050565b6000611526602583611882565b91507f45524332303a207472616e736665722066726f6d20746865207a65726f20616460008301527f64726573730000000000000000000000000000000000000000000000000000006020830152604082019050919050565b600061158c602483611882565b91507f45524332303a20617070726f76652066726f6d20746865207a65726f2061646460008301527f72657373000000000000000000000000000000000000000000000000000000006020830152604082019050919050565b60006115f2602583611882565b91507f45524332303a2064656372656173656420616c6c6f77616e63652062656c6f7760008301527f207a65726f0000000000000000000000000000000000000000000000000000006020830152604082019050919050565b6000611658601f83611882565b91507f45524332303a206d696e7420746f20746865207a65726f2061646472657373006000830152602082019050919050565b6116948161195b565b82525050565b6116a381611965565b82525050565b60006020820190506116be6000830184611284565b92915050565b60006020820190506116d96000830184611293565b92915050565b600060208201905081810360008301526116f981846112a2565b905092915050565b6000602082019050818103600083015261171a816112db565b9050919050565b6000602082019050818103600083015261173a81611341565b9050919050565b6000602082019050818103600083015261175a816113a7565b9050919050565b6000602082019050818103600083015261177a8161140d565b9050919050565b6000602082019050818103600083015261179a81611473565b9050919050565b600060208201905081810360008301526117ba816114d9565b9050919050565b600060208201905081810360008301526117da81611519565b9050919050565b600060208201905081810360008301526117fa8161157f565b9050919050565b6000602082019050818103600083015261181a816115e5565b9050919050565b6000602082019050818103600083015261183a8161164b565b9050919050565b6000602082019050611856600083018461168b565b92915050565b6000602082019050611871600083018461169a565b92915050565b600081519050919050565b600082825260208201905092915050565b600061189e8261195b565b91506118a98361195b565b9250827fffffffffffffffffffffffffffffffffffffffffffffffffffffffffffffffff038211156118de576118dd6119d7565b5b828201905092915050565b60006118f48261195b565b91506118ff8361195b565b925082821015611912576119116119d7565b5b828203905092915050565b60006119288261193b565b9050919050565b60008115159050919050565b600073ffffffffffffffffffffffffffffffffffffffff82169050919050565b6000819050919050565b600060ff82169050919050565b60005b83811015611990578082015181840152602081019050611975565b8381111561199f576000848401525b50505050565b600060028204905060018216806119bd57607f821691505b602082108114156119d1576119d0611a06565b5b50919050565b7f4e487b7100000000000000000000000000000000000000000000000000000000600052601160045260246000fd5b7f4e487b7100000000000000000000000000000000000000000000000000000000600052602260045260246000fd5b6000601f19601f8301169050919050565b611a4f8161191d565b8114611a5a57600080fd5b50565b611a668161195b565b8114611a7157600080fd5b5056fea264697066735822122064aaf27014ec9c76c73e71a0f6c6a6a8be15e5071e517583be27c81295f74bca64736f6c63430008000033",
  "immutableReferences": {},
  "source": "// SPDX-License-Identifier: MIT\npragma solidity ^0.8.0;\n\nimport \"./token/ERC20Mintable.sol\";\nimport \"./Campaign.sol\";\n\ncontract CampaignFactory {\n    address[] private _deployedCampaigns;\n    ERC20Mintable private _token;\n\n    event CampaignDeployed(address indexed campaignId);\n\n    constructor() {\n        _token = new ERC20Mintable(\"Smart Charity Token\", \"SCT\");\n    }\n\n    function token() public view returns (address) {\n        return address(_token);\n    }\n\n    function deployedCampaigns() public view returns (address[] memory) {\n        return _deployedCampaigns;\n    }\n\n    function createCampaign(\n        address payable wallet, uint256 goal, uint256 openingTime, uint256 closingTime,\n        string memory title, string memory description\n    )\n        public\n    {\n        address campaignId = address(new Campaign(wallet, _token, goal, openingTime, closingTime, title, description, msg.sender));\n        _deployedCampaigns.push(campaignId);\n        _token.mint(campaignId, goal);\n        emit CampaignDeployed(campaignId);\n    }\n}\n",
  "sourcePath": "/home/devilking6105/smart/contracts/CampaignFactory.sol",
  "compiler": {
    "name": "solc",
    "version": "0.8.0+commit.c7dfd78e.Emscripten.clang"
  },
  "schemaVersion": "3.4.13",
  "updatedAt": "2023-03-28T04:12:07.792Z",
  "networkType": "ethereum",
  "devdoc": {
    "kind": "dev",
    "methods": {},
    "version": 1
  },
  "userdoc": {
    "kind": "user",
    "methods": {},
    "version": 1
  }
}