{
	"data": {
		"bytecode": {
			"linkReferences": {},
			"object": "608060405234801561001057600080fd5b50604051610c05380380610c05833981810160405281019061003291906100db565b806000806101000a81548173ffffffffffffffffffffffffffffffffffffffff021916908373ffffffffffffffffffffffffffffffffffffffff16021790555050610108565b600080fd5b600073ffffffffffffffffffffffffffffffffffffffff82169050919050565b60006100a88261007d565b9050919050565b6100b88161009d565b81146100c357600080fd5b50565b6000815190506100d5816100af565b92915050565b6000602082840312156100f1576100f0610078565b5b60006100ff848285016100c6565b91505092915050565b610aee806101176000396000f3fe60806040526004361061004a5760003560e01c806323bd4d7a1461004f5780634051ddac1461007a57806391329493146100a7578063ac62f566146100d2578063b609d5c714610111575b600080fd5b34801561005b57600080fd5b5061006461012d565b60405161007191906103ee565b60405180910390f35b34801561008657600080fd5b5061008f610151565b60405161009e93929190610422565b60405180910390f35b3480156100b357600080fd5b506100bc61016b565b6040516100c99190610459565b60405180910390f35b3480156100de57600080fd5b506100f960048036038101906100f491906104b4565b610171565b60405161010893929190610571565b60405180910390f35b61012b600480360381019061012691906106eb565b6102bb565b005b60008054906101000a900473ffffffffffffffffffffffffffffffffffffffff1681565b600080600047600180549050600254925092509250909192565b60025481565b6001818154811061018157600080fd5b90600052602060002090600302016000915090508060000180546101a490610792565b80601f01602080910402602001604051908101604052809291908181526020018280546101d090610792565b801561021d5780601f106101f25761010080835404028352916020019161021d565b820191906000526020600020905b81548152906001019060200180831161020057829003601f168201915b50505050509080600101805461023290610792565b80601f016020809104026020016040519081016040528092919081815260200182805461025e90610792565b80156102ab5780601f10610280576101008083540402835291602001916102ab565b820191906000526020600020905b81548152906001019060200180831161028e57829003601f168201915b5050505050908060020154905083565b600260008154809291906102ce906107f2565b91905055503373ffffffffffffffffffffffffffffffffffffffff167f34b88831dcc1ce1e75a9b888cb5d6157d2d71e9becff43c3f6d0b03358a16b3183833460405161031d93929190610571565b60405180910390a2600060405180606001604052808481526020018381526020013481525090506001819080600181540180825580915050600190039060005260206000209060030201600090919091909150600082015181600001908161038591906109e6565b50602082015181600101908161039b91906109e6565b50604082015181600201555050505050565b600073ffffffffffffffffffffffffffffffffffffffff82169050919050565b60006103d8826103ad565b9050919050565b6103e8816103cd565b82525050565b600060208201905061040360008301846103df565b92915050565b6000819050919050565b61041c81610409565b82525050565b60006060820190506104376000830186610413565b6104446020830185610413565b6104516040830184610413565b949350505050565b600060208201905061046e6000830184610413565b92915050565b6000604051905090565b600080fd5b600080fd5b61049181610409565b811461049c57600080fd5b50565b6000813590506104ae81610488565b92915050565b6000602082840312156104ca576104c961047e565b5b60006104d88482850161049f565b91505092915050565b600081519050919050565b600082825260208201905092915050565b60005b8381101561051b578082015181840152602081019050610500565b60008484015250505050565b6000601f19601f8301169050919050565b6000610543826104e1565b61054d81856104ec565b935061055d8185602086016104fd565b61056681610527565b840191505092915050565b6000606082019050818103600083015261058b8186610538565b9050818103602083015261059f8185610538565b90506105ae6040830184610413565b949350505050565b600080fd5b600080fd5b7f4e487b7100000000000000000000000000000000000000000000000000000000600052604160045260246000fd5b6105f882610527565b810181811067ffffffffffffffff82111715610617576106166105c0565b5b80604052505050565b600061062a610474565b905061063682826105ef565b919050565b600067ffffffffffffffff821115610656576106556105c0565b5b61065f82610527565b9050602081019050919050565b82818337600083830152505050565b600061068e6106898461063b565b610620565b9050828152602081018484840111156106aa576106a96105bb565b5b6106b584828561066c565b509392505050565b600082601f8301126106d2576106d16105b6565b5b81356106e284826020860161067b565b91505092915050565b600080604083850312156107025761070161047e565b5b600083013567ffffffffffffffff8111156107205761071f610483565b5b61072c858286016106bd565b925050602083013567ffffffffffffffff81111561074d5761074c610483565b5b610759858286016106bd565b9150509250929050565b7f4e487b7100000000000000000000000000000000000000000000000000000000600052602260045260246000fd5b600060028204905060018216806107aa57607f821691505b6020821081036107bd576107bc610763565b5b50919050565b7f4e487b7100000000000000000000000000000000000000000000000000000000600052601160045260246000fd5b60006107fd82610409565b91507fffffffffffffffffffffffffffffffffffffffffffffffffffffffffffffffff820361082f5761082e6107c3565b5b600182019050919050565b60008190508160005260206000209050919050565b60006020601f8301049050919050565b600082821b905092915050565b60006008830261089c7fffffffffffffffffffffffffffffffffffffffffffffffffffffffffffffffff8261085f565b6108a6868361085f565b95508019841693508086168417925050509392505050565b6000819050919050565b60006108e36108de6108d984610409565b6108be565b610409565b9050919050565b6000819050919050565b6108fd836108c8565b610911610909826108ea565b84845461086c565b825550505050565b600090565b610926610919565b6109318184846108f4565b505050565b5b818110156109555761094a60008261091e565b600181019050610937565b5050565b601f82111561099a5761096b8161083a565b6109748461084f565b81016020851015610983578190505b61099761098f8561084f565b830182610936565b50505b505050565b600082821c905092915050565b60006109bd6000198460080261099f565b1980831691505092915050565b60006109d683836109ac565b9150826002028217905092915050565b6109ef826104e1565b67ffffffffffffffff811115610a0857610a076105c0565b5b610a128254610792565b610a1d828285610959565b600060209050601f831160018114610a505760008415610a3e578287015190505b610a4885826109ca565b865550610ab0565b601f198416610a5e8661083a565b60005b82811015610a8657848901518255600182019150602085019450602081019050610a61565b86831015610aa35784890151610a9f601f8916826109ac565b8355505b6001600288020188555050505b50505050505056fea264697066735822122027103e0d65a21ff7f9d3f2126bc8892bcd9c392f1610a5256802f5a4a0a7342064736f6c63430008120033",
			"opcodes": "PUSH1 0x80 PUSH1 0x40 MSTORE CALLVALUE DUP1 ISZERO PUSH2 0x10 JUMPI PUSH1 0x0 DUP1 REVERT JUMPDEST POP PUSH1 0x40 MLOAD PUSH2 0xC05 CODESIZE SUB DUP1 PUSH2 0xC05 DUP4 CODECOPY DUP2 DUP2 ADD PUSH1 0x40 MSTORE DUP2 ADD SWAP1 PUSH2 0x32 SWAP2 SWAP1 PUSH2 0xDB JUMP JUMPDEST DUP1 PUSH1 0x0 DUP1 PUSH2 0x100 EXP DUP2 SLOAD DUP2 PUSH20 0xFFFFFFFFFFFFFFFFFFFFFFFFFFFFFFFFFFFFFFFF MUL NOT AND SWAP1 DUP4 PUSH20 0xFFFFFFFFFFFFFFFFFFFFFFFFFFFFFFFFFFFFFFFF AND MUL OR SWAP1 SSTORE POP POP PUSH2 0x108 JUMP JUMPDEST PUSH1 0x0 DUP1 REVERT JUMPDEST PUSH1 0x0 PUSH20 0xFFFFFFFFFFFFFFFFFFFFFFFFFFFFFFFFFFFFFFFF DUP3 AND SWAP1 POP SWAP2 SWAP1 POP JUMP JUMPDEST PUSH1 0x0 PUSH2 0xA8 DUP3 PUSH2 0x7D JUMP JUMPDEST SWAP1 POP SWAP2 SWAP1 POP JUMP JUMPDEST PUSH2 0xB8 DUP2 PUSH2 0x9D JUMP JUMPDEST DUP2 EQ PUSH2 0xC3 JUMPI PUSH1 0x0 DUP1 REVERT JUMPDEST POP JUMP JUMPDEST PUSH1 0x0 DUP2 MLOAD SWAP1 POP PUSH2 0xD5 DUP2 PUSH2 0xAF JUMP JUMPDEST SWAP3 SWAP2 POP POP JUMP JUMPDEST PUSH1 0x0 PUSH1 0x20 DUP3 DUP5 SUB SLT ISZERO PUSH2 0xF1 JUMPI PUSH2 0xF0 PUSH2 0x78 JUMP JUMPDEST JUMPDEST PUSH1 0x0 PUSH2 0xFF DUP5 DUP3 DUP6 ADD PUSH2 0xC6 JUMP JUMPDEST SWAP2 POP POP SWAP3 SWAP2 POP POP JUMP JUMPDEST PUSH2 0xAEE DUP1 PUSH2 0x117 PUSH1 0x0 CODECOPY PUSH1 0x0 RETURN INVALID PUSH1 0x80 PUSH1 0x40 MSTORE PUSH1 0x4 CALLDATASIZE LT PUSH2 0x4A JUMPI PUSH1 0x0 CALLDATALOAD PUSH1 0xE0 SHR DUP1 PUSH4 0x23BD4D7A EQ PUSH2 0x4F JUMPI DUP1 PUSH4 0x4051DDAC EQ PUSH2 0x7A JUMPI DUP1 PUSH4 0x91329493 EQ PUSH2 0xA7 JUMPI DUP1 PUSH4 0xAC62F566 EQ PUSH2 0xD2 JUMPI DUP1 PUSH4 0xB609D5C7 EQ PUSH2 0x111 JUMPI JUMPDEST PUSH1 0x0 DUP1 REVERT JUMPDEST CALLVALUE DUP1 ISZERO PUSH2 0x5B JUMPI PUSH1 0x0 DUP1 REVERT JUMPDEST POP PUSH2 0x64 PUSH2 0x12D JUMP JUMPDEST PUSH1 0x40 MLOAD PUSH2 0x71 SWAP2 SWAP1 PUSH2 0x3EE JUMP JUMPDEST PUSH1 0x40 MLOAD DUP1 SWAP2 SUB SWAP1 RETURN JUMPDEST CALLVALUE DUP1 ISZERO PUSH2 0x86 JUMPI PUSH1 0x0 DUP1 REVERT JUMPDEST POP PUSH2 0x8F PUSH2 0x151 JUMP JUMPDEST PUSH1 0x40 MLOAD PUSH2 0x9E SWAP4 SWAP3 SWAP2 SWAP1 PUSH2 0x422 JUMP JUMPDEST PUSH1 0x40 MLOAD DUP1 SWAP2 SUB SWAP1 RETURN JUMPDEST CALLVALUE DUP1 ISZERO PUSH2 0xB3 JUMPI PUSH1 0x0 DUP1 REVERT JUMPDEST POP PUSH2 0xBC PUSH2 0x16B JUMP JUMPDEST PUSH1 0x40 MLOAD PUSH2 0xC9 SWAP2 SWAP1 PUSH2 0x459 JUMP JUMPDEST PUSH1 0x40 MLOAD DUP1 SWAP2 SUB SWAP1 RETURN JUMPDEST CALLVALUE DUP1 ISZERO PUSH2 0xDE JUMPI PUSH1 0x0 DUP1 REVERT JUMPDEST POP PUSH2 0xF9 PUSH1 0x4 DUP1 CALLDATASIZE SUB DUP2 ADD SWAP1 PUSH2 0xF4 SWAP2 SWAP1 PUSH2 0x4B4 JUMP JUMPDEST PUSH2 0x171 JUMP JUMPDEST PUSH1 0x40 MLOAD PUSH2 0x108 SWAP4 SWAP3 SWAP2 SWAP1 PUSH2 0x571 JUMP JUMPDEST PUSH1 0x40 MLOAD DUP1 SWAP2 SUB SWAP1 RETURN JUMPDEST PUSH2 0x12B PUSH1 0x4 DUP1 CALLDATASIZE SUB DUP2 ADD SWAP1 PUSH2 0x126 SWAP2 SWAP1 PUSH2 0x6EB JUMP JUMPDEST PUSH2 0x2BB JUMP JUMPDEST STOP JUMPDEST PUSH1 0x0 DUP1 SLOAD SWAP1 PUSH2 0x100 EXP SWAP1 DIV PUSH20 0xFFFFFFFFFFFFFFFFFFFFFFFFFFFFFFFFFFFFFFFF AND DUP2 JUMP JUMPDEST PUSH1 0x0 DUP1 PUSH1 0x0 SELFBALANCE PUSH1 0x1 DUP1 SLOAD SWAP1 POP PUSH1 0x2 SLOAD SWAP3 POP SWAP3 POP SWAP3 POP SWAP1 SWAP2 SWAP3 JUMP JUMPDEST PUSH1 0x2 SLOAD DUP2 JUMP JUMPDEST PUSH1 0x1 DUP2 DUP2 SLOAD DUP2 LT PUSH2 0x181 JUMPI PUSH1 0x0 DUP1 REVERT JUMPDEST SWAP1 PUSH1 0x0 MSTORE PUSH1 0x20 PUSH1 0x0 KECCAK256 SWAP1 PUSH1 0x3 MUL ADD PUSH1 0x0 SWAP2 POP SWAP1 POP DUP1 PUSH1 0x0 ADD DUP1 SLOAD PUSH2 0x1A4 SWAP1 PUSH2 0x792 JUMP JUMPDEST DUP1 PUSH1 0x1F ADD PUSH1 0x20 DUP1 SWAP2 DIV MUL PUSH1 0x20 ADD PUSH1 0x40 MLOAD SWAP1 DUP2 ADD PUSH1 0x40 MSTORE DUP1 SWAP3 SWAP2 SWAP1 DUP2 DUP2 MSTORE PUSH1 0x20 ADD DUP3 DUP1 SLOAD PUSH2 0x1D0 SWAP1 PUSH2 0x792 JUMP JUMPDEST DUP1 ISZERO PUSH2 0x21D JUMPI DUP1 PUSH1 0x1F LT PUSH2 0x1F2 JUMPI PUSH2 0x100 DUP1 DUP4 SLOAD DIV MUL DUP4 MSTORE SWAP2 PUSH1 0x20 ADD SWAP2 PUSH2 0x21D JUMP JUMPDEST DUP3 ADD SWAP2 SWAP1 PUSH1 0x0 MSTORE PUSH1 0x20 PUSH1 0x0 KECCAK256 SWAP1 JUMPDEST DUP2 SLOAD DUP2 MSTORE SWAP1 PUSH1 0x1 ADD SWAP1 PUSH1 0x20 ADD DUP1 DUP4 GT PUSH2 0x200 JUMPI DUP3 SWAP1 SUB PUSH1 0x1F AND DUP3 ADD SWAP2 JUMPDEST POP POP POP POP POP SWAP1 DUP1 PUSH1 0x1 ADD DUP1 SLOAD PUSH2 0x232 SWAP1 PUSH2 0x792 JUMP JUMPDEST DUP1 PUSH1 0x1F ADD PUSH1 0x20 DUP1 SWAP2 DIV MUL PUSH1 0x20 ADD PUSH1 0x40 MLOAD SWAP1 DUP2 ADD PUSH1 0x40 MSTORE DUP1 SWAP3 SWAP2 SWAP1 DUP2 DUP2 MSTORE PUSH1 0x20 ADD DUP3 DUP1 SLOAD PUSH2 0x25E SWAP1 PUSH2 0x792 JUMP JUMPDEST DUP1 ISZERO PUSH2 0x2AB JUMPI DUP1 PUSH1 0x1F LT PUSH2 0x280 JUMPI PUSH2 0x100 DUP1 DUP4 SLOAD DIV MUL DUP4 MSTORE SWAP2 PUSH1 0x20 ADD SWAP2 PUSH2 0x2AB JUMP JUMPDEST DUP3 ADD SWAP2 SWAP1 PUSH1 0x0 MSTORE PUSH1 0x20 PUSH1 0x0 KECCAK256 SWAP1 JUMPDEST DUP2 SLOAD DUP2 MSTORE SWAP1 PUSH1 0x1 ADD SWAP1 PUSH1 0x20 ADD DUP1 DUP4 GT PUSH2 0x28E JUMPI DUP3 SWAP1 SUB PUSH1 0x1F AND DUP3 ADD SWAP2 JUMPDEST POP POP POP POP POP SWAP1 DUP1 PUSH1 0x2 ADD SLOAD SWAP1 POP DUP4 JUMP JUMPDEST PUSH1 0x2 PUSH1 0x0 DUP2 SLOAD DUP1 SWAP3 SWAP2 SWAP1 PUSH2 0x2CE SWAP1 PUSH2 0x7F2 JUMP JUMPDEST SWAP2 SWAP1 POP SSTORE POP CALLER PUSH20 0xFFFFFFFFFFFFFFFFFFFFFFFFFFFFFFFFFFFFFFFF AND PUSH32 0x34B88831DCC1CE1E75A9B888CB5D6157D2D71E9BECFF43C3F6D0B03358A16B31 DUP4 DUP4 CALLVALUE PUSH1 0x40 MLOAD PUSH2 0x31D SWAP4 SWAP3 SWAP2 SWAP1 PUSH2 0x571 JUMP JUMPDEST PUSH1 0x40 MLOAD DUP1 SWAP2 SUB SWAP1 LOG2 PUSH1 0x0 PUSH1 0x40 MLOAD DUP1 PUSH1 0x60 ADD PUSH1 0x40 MSTORE DUP1 DUP5 DUP2 MSTORE PUSH1 0x20 ADD DUP4 DUP2 MSTORE PUSH1 0x20 ADD CALLVALUE DUP2 MSTORE POP SWAP1 POP PUSH1 0x1 DUP2 SWAP1 DUP1 PUSH1 0x1 DUP2 SLOAD ADD DUP1 DUP3 SSTORE DUP1 SWAP2 POP POP PUSH1 0x1 SWAP1 SUB SWAP1 PUSH1 0x0 MSTORE PUSH1 0x20 PUSH1 0x0 KECCAK256 SWAP1 PUSH1 0x3 MUL ADD PUSH1 0x0 SWAP1 SWAP2 SWAP1 SWAP2 SWAP1 SWAP2 POP PUSH1 0x0 DUP3 ADD MLOAD DUP2 PUSH1 0x0 ADD SWAP1 DUP2 PUSH2 0x385 SWAP2 SWAP1 PUSH2 0x9E6 JUMP JUMPDEST POP PUSH1 0x20 DUP3 ADD MLOAD DUP2 PUSH1 0x1 ADD SWAP1 DUP2 PUSH2 0x39B SWAP2 SWAP1 PUSH2 0x9E6 JUMP JUMPDEST POP PUSH1 0x40 DUP3 ADD MLOAD DUP2 PUSH1 0x2 ADD SSTORE POP POP POP POP POP JUMP JUMPDEST PUSH1 0x0 PUSH20 0xFFFFFFFFFFFFFFFFFFFFFFFFFFFFFFFFFFFFFFFF DUP3 AND SWAP1 POP SWAP2 SWAP1 POP JUMP JUMPDEST PUSH1 0x0 PUSH2 0x3D8 DUP3 PUSH2 0x3AD JUMP JUMPDEST SWAP1 POP SWAP2 SWAP1 POP JUMP JUMPDEST PUSH2 0x3E8 DUP2 PUSH2 0x3CD JUMP JUMPDEST DUP3 MSTORE POP POP JUMP JUMPDEST PUSH1 0x0 PUSH1 0x20 DUP3 ADD SWAP1 POP PUSH2 0x403 PUSH1 0x0 DUP4 ADD DUP5 PUSH2 0x3DF JUMP JUMPDEST SWAP3 SWAP2 POP POP JUMP JUMPDEST PUSH1 0x0 DUP2 SWAP1 POP SWAP2 SWAP1 POP JUMP JUMPDEST PUSH2 0x41C DUP2 PUSH2 0x409 JUMP JUMPDEST DUP3 MSTORE POP POP JUMP JUMPDEST PUSH1 0x0 PUSH1 0x60 DUP3 ADD SWAP1 POP PUSH2 0x437 PUSH1 0x0 DUP4 ADD DUP7 PUSH2 0x413 JUMP JUMPDEST PUSH2 0x444 PUSH1 0x20 DUP4 ADD DUP6 PUSH2 0x413 JUMP JUMPDEST PUSH2 0x451 PUSH1 0x40 DUP4 ADD DUP5 PUSH2 0x413 JUMP JUMPDEST SWAP5 SWAP4 POP POP POP POP JUMP JUMPDEST PUSH1 0x0 PUSH1 0x20 DUP3 ADD SWAP1 POP PUSH2 0x46E PUSH1 0x0 DUP4 ADD DUP5 PUSH2 0x413 JUMP JUMPDEST SWAP3 SWAP2 POP POP JUMP JUMPDEST PUSH1 0x0 PUSH1 0x40 MLOAD SWAP1 POP SWAP1 JUMP JUMPDEST PUSH1 0x0 DUP1 REVERT JUMPDEST PUSH1 0x0 DUP1 REVERT JUMPDEST PUSH2 0x491 DUP2 PUSH2 0x409 JUMP JUMPDEST DUP2 EQ PUSH2 0x49C JUMPI PUSH1 0x0 DUP1 REVERT JUMPDEST POP JUMP JUMPDEST PUSH1 0x0 DUP2 CALLDATALOAD SWAP1 POP PUSH2 0x4AE DUP2 PUSH2 0x488 JUMP JUMPDEST SWAP3 SWAP2 POP POP JUMP JUMPDEST PUSH1 0x0 PUSH1 0x20 DUP3 DUP5 SUB SLT ISZERO PUSH2 0x4CA JUMPI PUSH2 0x4C9 PUSH2 0x47E JUMP JUMPDEST JUMPDEST PUSH1 0x0 PUSH2 0x4D8 DUP5 DUP3 DUP6 ADD PUSH2 0x49F JUMP JUMPDEST SWAP2 POP POP SWAP3 SWAP2 POP POP JUMP JUMPDEST PUSH1 0x0 DUP2 MLOAD SWAP1 POP SWAP2 SWAP1 POP JUMP JUMPDEST PUSH1 0x0 DUP3 DUP3 MSTORE PUSH1 0x20 DUP3 ADD SWAP1 POP SWAP3 SWAP2 POP POP JUMP JUMPDEST PUSH1 0x0 JUMPDEST DUP4 DUP2 LT ISZERO PUSH2 0x51B JUMPI DUP1 DUP3 ADD MLOAD DUP2 DUP5 ADD MSTORE PUSH1 0x20 DUP2 ADD SWAP1 POP PUSH2 0x500 JUMP JUMPDEST PUSH1 0x0 DUP5 DUP5 ADD MSTORE POP POP POP POP JUMP JUMPDEST PUSH1 0x0 PUSH1 0x1F NOT PUSH1 0x1F DUP4 ADD AND SWAP1 POP SWAP2 SWAP1 POP JUMP JUMPDEST PUSH1 0x0 PUSH2 0x543 DUP3 PUSH2 0x4E1 JUMP JUMPDEST PUSH2 0x54D DUP2 DUP6 PUSH2 0x4EC JUMP JUMPDEST SWAP4 POP PUSH2 0x55D DUP2 DUP6 PUSH1 0x20 DUP7 ADD PUSH2 0x4FD JUMP JUMPDEST PUSH2 0x566 DUP2 PUSH2 0x527 JUMP JUMPDEST DUP5 ADD SWAP2 POP POP SWAP3 SWAP2 POP POP JUMP JUMPDEST PUSH1 0x0 PUSH1 0x60 DUP3 ADD SWAP1 POP DUP2 DUP2 SUB PUSH1 0x0 DUP4 ADD MSTORE PUSH2 0x58B DUP2 DUP7 PUSH2 0x538 JUMP JUMPDEST SWAP1 POP DUP2 DUP2 SUB PUSH1 0x20 DUP4 ADD MSTORE PUSH2 0x59F DUP2 DUP6 PUSH2 0x538 JUMP JUMPDEST SWAP1 POP PUSH2 0x5AE PUSH1 0x40 DUP4 ADD DUP5 PUSH2 0x413 JUMP JUMPDEST SWAP5 SWAP4 POP POP POP POP JUMP JUMPDEST PUSH1 0x0 DUP1 REVERT JUMPDEST PUSH1 0x0 DUP1 REVERT JUMPDEST PUSH32 0x4E487B7100000000000000000000000000000000000000000000000000000000 PUSH1 0x0 MSTORE PUSH1 0x41 PUSH1 0x4 MSTORE PUSH1 0x24 PUSH1 0x0 REVERT JUMPDEST PUSH2 0x5F8 DUP3 PUSH2 0x527 JUMP JUMPDEST DUP2 ADD DUP2 DUP2 LT PUSH8 0xFFFFFFFFFFFFFFFF DUP3 GT OR ISZERO PUSH2 0x617 JUMPI PUSH2 0x616 PUSH2 0x5C0 JUMP JUMPDEST JUMPDEST DUP1 PUSH1 0x40 MSTORE POP POP POP JUMP JUMPDEST PUSH1 0x0 PUSH2 0x62A PUSH2 0x474 JUMP JUMPDEST SWAP1 POP PUSH2 0x636 DUP3 DUP3 PUSH2 0x5EF JUMP JUMPDEST SWAP2 SWAP1 POP JUMP JUMPDEST PUSH1 0x0 PUSH8 0xFFFFFFFFFFFFFFFF DUP3 GT ISZERO PUSH2 0x656 JUMPI PUSH2 0x655 PUSH2 0x5C0 JUMP JUMPDEST JUMPDEST PUSH2 0x65F DUP3 PUSH2 0x527 JUMP JUMPDEST SWAP1 POP PUSH1 0x20 DUP2 ADD SWAP1 POP SWAP2 SWAP1 POP JUMP JUMPDEST DUP3 DUP2 DUP4 CALLDATACOPY PUSH1 0x0 DUP4 DUP4 ADD MSTORE POP POP POP JUMP JUMPDEST PUSH1 0x0 PUSH2 0x68E PUSH2 0x689 DUP5 PUSH2 0x63B JUMP JUMPDEST PUSH2 0x620 JUMP JUMPDEST SWAP1 POP DUP3 DUP2 MSTORE PUSH1 0x20 DUP2 ADD DUP5 DUP5 DUP5 ADD GT ISZERO PUSH2 0x6AA JUMPI PUSH2 0x6A9 PUSH2 0x5BB JUMP JUMPDEST JUMPDEST PUSH2 0x6B5 DUP5 DUP3 DUP6 PUSH2 0x66C JUMP JUMPDEST POP SWAP4 SWAP3 POP POP POP JUMP JUMPDEST PUSH1 0x0 DUP3 PUSH1 0x1F DUP4 ADD SLT PUSH2 0x6D2 JUMPI PUSH2 0x6D1 PUSH2 0x5B6 JUMP JUMPDEST JUMPDEST DUP2 CALLDATALOAD PUSH2 0x6E2 DUP5 DUP3 PUSH1 0x20 DUP7 ADD PUSH2 0x67B JUMP JUMPDEST SWAP2 POP POP SWAP3 SWAP2 POP POP JUMP JUMPDEST PUSH1 0x0 DUP1 PUSH1 0x40 DUP4 DUP6 SUB SLT ISZERO PUSH2 0x702 JUMPI PUSH2 0x701 PUSH2 0x47E JUMP JUMPDEST JUMPDEST PUSH1 0x0 DUP4 ADD CALLDATALOAD PUSH8 0xFFFFFFFFFFFFFFFF DUP2 GT ISZERO PUSH2 0x720 JUMPI PUSH2 0x71F PUSH2 0x483 JUMP JUMPDEST JUMPDEST PUSH2 0x72C DUP6 DUP3 DUP7 ADD PUSH2 0x6BD JUMP JUMPDEST SWAP3 POP POP PUSH1 0x20 DUP4 ADD CALLDATALOAD PUSH8 0xFFFFFFFFFFFFFFFF DUP2 GT ISZERO PUSH2 0x74D JUMPI PUSH2 0x74C PUSH2 0x483 JUMP JUMPDEST JUMPDEST PUSH2 0x759 DUP6 DUP3 DUP7 ADD PUSH2 0x6BD JUMP JUMPDEST SWAP2 POP POP SWAP3 POP SWAP3 SWAP1 POP JUMP JUMPDEST PUSH32 0x4E487B7100000000000000000000000000000000000000000000000000000000 PUSH1 0x0 MSTORE PUSH1 0x22 PUSH1 0x4 MSTORE PUSH1 0x24 PUSH1 0x0 REVERT JUMPDEST PUSH1 0x0 PUSH1 0x2 DUP3 DIV SWAP1 POP PUSH1 0x1 DUP3 AND DUP1 PUSH2 0x7AA JUMPI PUSH1 0x7F DUP3 AND SWAP2 POP JUMPDEST PUSH1 0x20 DUP3 LT DUP2 SUB PUSH2 0x7BD JUMPI PUSH2 0x7BC PUSH2 0x763 JUMP JUMPDEST JUMPDEST POP SWAP2 SWAP1 POP JUMP JUMPDEST PUSH32 0x4E487B7100000000000000000000000000000000000000000000000000000000 PUSH1 0x0 MSTORE PUSH1 0x11 PUSH1 0x4 MSTORE PUSH1 0x24 PUSH1 0x0 REVERT JUMPDEST PUSH1 0x0 PUSH2 0x7FD DUP3 PUSH2 0x409 JUMP JUMPDEST SWAP2 POP PUSH32 0xFFFFFFFFFFFFFFFFFFFFFFFFFFFFFFFFFFFFFFFFFFFFFFFFFFFFFFFFFFFFFFFF DUP3 SUB PUSH2 0x82F JUMPI PUSH2 0x82E PUSH2 0x7C3 JUMP JUMPDEST JUMPDEST PUSH1 0x1 DUP3 ADD SWAP1 POP SWAP2 SWAP1 POP JUMP JUMPDEST PUSH1 0x0 DUP2 SWAP1 POP DUP2 PUSH1 0x0 MSTORE PUSH1 0x20 PUSH1 0x0 KECCAK256 SWAP1 POP SWAP2 SWAP1 POP JUMP JUMPDEST PUSH1 0x0 PUSH1 0x20 PUSH1 0x1F DUP4 ADD DIV SWAP1 POP SWAP2 SWAP1 POP JUMP JUMPDEST PUSH1 0x0 DUP3 DUP3 SHL SWAP1 POP SWAP3 SWAP2 POP POP JUMP JUMPDEST PUSH1 0x0 PUSH1 0x8 DUP4 MUL PUSH2 0x89C PUSH32 0xFFFFFFFFFFFFFFFFFFFFFFFFFFFFFFFFFFFFFFFFFFFFFFFFFFFFFFFFFFFFFFFF DUP3 PUSH2 0x85F JUMP JUMPDEST PUSH2 0x8A6 DUP7 DUP4 PUSH2 0x85F JUMP JUMPDEST SWAP6 POP DUP1 NOT DUP5 AND SWAP4 POP DUP1 DUP7 AND DUP5 OR SWAP3 POP POP POP SWAP4 SWAP3 POP POP POP JUMP JUMPDEST PUSH1 0x0 DUP2 SWAP1 POP SWAP2 SWAP1 POP JUMP JUMPDEST PUSH1 0x0 PUSH2 0x8E3 PUSH2 0x8DE PUSH2 0x8D9 DUP5 PUSH2 0x409 JUMP JUMPDEST PUSH2 0x8BE JUMP JUMPDEST PUSH2 0x409 JUMP JUMPDEST SWAP1 POP SWAP2 SWAP1 POP JUMP JUMPDEST PUSH1 0x0 DUP2 SWAP1 POP SWAP2 SWAP1 POP JUMP JUMPDEST PUSH2 0x8FD DUP4 PUSH2 0x8C8 JUMP JUMPDEST PUSH2 0x911 PUSH2 0x909 DUP3 PUSH2 0x8EA JUMP JUMPDEST DUP5 DUP5 SLOAD PUSH2 0x86C JUMP JUMPDEST DUP3 SSTORE POP POP POP POP JUMP JUMPDEST PUSH1 0x0 SWAP1 JUMP JUMPDEST PUSH2 0x926 PUSH2 0x919 JUMP JUMPDEST PUSH2 0x931 DUP2 DUP5 DUP5 PUSH2 0x8F4 JUMP JUMPDEST POP POP POP JUMP JUMPDEST JUMPDEST DUP2 DUP2 LT ISZERO PUSH2 0x955 JUMPI PUSH2 0x94A PUSH1 0x0 DUP3 PUSH2 0x91E JUMP JUMPDEST PUSH1 0x1 DUP2 ADD SWAP1 POP PUSH2 0x937 JUMP JUMPDEST POP POP JUMP JUMPDEST PUSH1 0x1F DUP3 GT ISZERO PUSH2 0x99A JUMPI PUSH2 0x96B DUP2 PUSH2 0x83A JUMP JUMPDEST PUSH2 0x974 DUP5 PUSH2 0x84F JUMP JUMPDEST DUP2 ADD PUSH1 0x20 DUP6 LT ISZERO PUSH2 0x983 JUMPI DUP2 SWAP1 POP JUMPDEST PUSH2 0x997 PUSH2 0x98F DUP6 PUSH2 0x84F JUMP JUMPDEST DUP4 ADD DUP3 PUSH2 0x936 JUMP JUMPDEST POP POP JUMPDEST POP POP POP JUMP JUMPDEST PUSH1 0x0 DUP3 DUP3 SHR SWAP1 POP SWAP3 SWAP2 POP POP JUMP JUMPDEST PUSH1 0x0 PUSH2 0x9BD PUSH1 0x0 NOT DUP5 PUSH1 0x8 MUL PUSH2 0x99F JUMP JUMPDEST NOT DUP1 DUP4 AND SWAP2 POP POP SWAP3 SWAP2 POP POP JUMP JUMPDEST PUSH1 0x0 PUSH2 0x9D6 DUP4 DUP4 PUSH2 0x9AC JUMP JUMPDEST SWAP2 POP DUP3 PUSH1 0x2 MUL DUP3 OR SWAP1 POP SWAP3 SWAP2 POP POP JUMP JUMPDEST PUSH2 0x9EF DUP3 PUSH2 0x4E1 JUMP JUMPDEST PUSH8 0xFFFFFFFFFFFFFFFF DUP2 GT ISZERO PUSH2 0xA08 JUMPI PUSH2 0xA07 PUSH2 0x5C0 JUMP JUMPDEST JUMPDEST PUSH2 0xA12 DUP3 SLOAD PUSH2 0x792 JUMP JUMPDEST PUSH2 0xA1D DUP3 DUP3 DUP6 PUSH2 0x959 JUMP JUMPDEST PUSH1 0x0 PUSH1 0x20 SWAP1 POP PUSH1 0x1F DUP4 GT PUSH1 0x1 DUP2 EQ PUSH2 0xA50 JUMPI PUSH1 0x0 DUP5 ISZERO PUSH2 0xA3E JUMPI DUP3 DUP8 ADD MLOAD SWAP1 POP JUMPDEST PUSH2 0xA48 DUP6 DUP3 PUSH2 0x9CA JUMP JUMPDEST DUP7 SSTORE POP PUSH2 0xAB0 JUMP JUMPDEST PUSH1 0x1F NOT DUP5 AND PUSH2 0xA5E DUP7 PUSH2 0x83A JUMP JUMPDEST PUSH1 0x0 JUMPDEST DUP3 DUP2 LT ISZERO PUSH2 0xA86 JUMPI DUP5 DUP10 ADD MLOAD DUP3 SSTORE PUSH1 0x1 DUP3 ADD SWAP2 POP PUSH1 0x20 DUP6 ADD SWAP5 POP PUSH1 0x20 DUP2 ADD SWAP1 POP PUSH2 0xA61 JUMP JUMPDEST DUP7 DUP4 LT ISZERO PUSH2 0xAA3 JUMPI DUP5 DUP10 ADD MLOAD PUSH2 0xA9F PUSH1 0x1F DUP10 AND DUP3 PUSH2 0x9AC JUMP JUMPDEST DUP4 SSTORE POP JUMPDEST PUSH1 0x1 PUSH1 0x2 DUP9 MUL ADD DUP9 SSTORE POP POP POP JUMPDEST POP POP POP POP POP POP JUMP INVALID LOG2 PUSH5 0x6970667358 0x22 SLT KECCAK256 0x27 LT RETURNDATACOPY 0xD PUSH6 0xA21FF7F9D3F2 SLT PUSH12 0xC8892BCD9C392F1610A52568 MUL CREATE2 LOG4 LOG0 0xA7 CALLVALUE KECCAK256 PUSH5 0x736F6C6343 STOP ADDMOD SLT STOP CALLER "
		},
		"gasEstimates": {
			"creation": {
				"codeDepositCost": "559600",
				"executionCost": "infinite",
				"totalCost": "infinite"
			},
			"external": {
				"charityCount()": "2451",
				"contributeMessage(string,string)": "infinite",
				"donators(uint256)": "infinite",
				"getSummary()": "infinite",
				"organization()": "2489"
			}
		},
		"methodIdentifiers": {
			"charityCount()": "91329493",
			"contributeMessage(string,string)": "b609d5c7",
			"donators(uint256)": "ac62f566",
			"getSummary()": "4051ddac",
			"organization()": "23bd4d7a"
		}
	},
	"abi": [
		{
			"inputs": [
				{
					"internalType": "address",
					"name": "creator",
					"type": "address"
				}
			],
			"stateMutability": "nonpayable",
			"type": "constructor"
		},
		{
			"anonymous": false,
			"inputs": [
				{
					"indexed": true,
					"internalType": "address",
					"name": "from",
					"type": "address"
				},
				{
					"indexed": false,
					"internalType": "string",
					"name": "message",
					"type": "string"
				},
				{
					"indexed": false,
					"internalType": "string",
					"name": "username",
					"type": "string"
				},
				{
					"indexed": false,
					"internalType": "uint256",
					"name": "value",
					"type": "uint256"
				}
			],
			"name": "CharityEvent",
			"type": "event"
		},
		{
			"inputs": [],
			"name": "charityCount",
			"outputs": [
				{
					"internalType": "uint256",
					"name": "",
					"type": "uint256"
				}
			],
			"stateMutability": "view",
			"type": "function"
		},
		{
			"inputs": [
				{
					"internalType": "string",
					"name": "message",
					"type": "string"
				},
				{
					"internalType": "string",
					"name": "username",
					"type": "string"
				}
			],
			"name": "contributeMessage",
			"outputs": [],
			"stateMutability": "payable",
			"type": "function"
		},
		{
			"inputs": [
				{
					"internalType": "uint256",
					"name": "",
					"type": "uint256"
				}
			],
			"name": "donators",
			"outputs": [
				{
					"internalType": "string",
					"name": "message",
					"type": "string"
				},
				{
					"internalType": "string",
					"name": "username",
					"type": "string"
				},
				{
					"internalType": "uint256",
					"name": "value",
					"type": "uint256"
				}
			],
			"stateMutability": "view",
			"type": "function"
		},
		{
			"inputs": [],
			"name": "getSummary",
			"outputs": [
				{
					"internalType": "uint256",
					"name": "balance",
					"type": "uint256"
				},
				{
					"internalType": "uint256",
					"name": "numDonators",
					"type": "uint256"
				},
				{
					"internalType": "uint256",
					"name": "numCharities",
					"type": "uint256"
				}
			],
			"stateMutability": "view",
			"type": "function"
		},
		{
			"inputs": [],
			"name": "organization",
			"outputs": [
				{
					"internalType": "address",
					"name": "",
					"type": "address"
				}
			],
			"stateMutability": "view",
			"type": "function"
		}
	]
}